:020000040800F2
:10000000000003204102000891020008910200084C
:100010009102000891020008910200089102000874
:100020000000000000000000000000005132000845
:100030009102000800000000E13100086D2700086F
:100040009102000891020008910200089102000844
:100050009102000891020008910200089102000834
:100060009102000891020008910200089102000824
:100070009102000891020008910200089102000814
:100080009102000891020008910200089102000804
:1000900091020008910200089102000891020008F4
:1000A00091020008910200089102000891020008E4
:1000B00091020008910200089102000891020008D4
:1000C00091020008910200089102000891020008C4
:1000D00091020008910200089102000891020008B4
:1000E00091020008910200089102000891020008A4
:1000F0009102000891020008910200089102000894
:1001000091020008250600089102000891020008EB
:100110009102000891020008910200089102000873
:100120009102000891020008910200089102000863
:100130009102000891020008910200089102000853
:100140009102000891020008910200089102000843
:100150009102000891020008910200089102000833
:100160009102000891020008910200089102000823
:100170009102000800000000910200080000000049
:100180009102000891020008910200089102000803
:1001900091020008910200089102000891020008F3
:1001A00091020008910200089102000891020008E3
:1001B00091020008910200089102000891020008D3
:1001C00091020008910200089102000891020008C3
:1001D00091020008910200089102000891020008B3
:1001E00091020008910200089102000891020008A3
:0801F00091020008000000006C
:1002000010B5054C237833B9044B13B1044800E012
:1002100000BF0123237010BD8000002000000000FB
:100220006C59000808B5034B1BB10349034800E0B3
:1002300000BF08BD00000000840000206C590008C9
:10024000DFF834D0002103E00C4B5B5843500431FD
:100250000B480C4B42189A42F6D30B4A02E000239B
:1002600042F8043B094B9A42F9D300F047FB04F0F3
:100270007FFE00F00FF8FEE700000320C05A0008E0
:100280000000002080000020800000201840002096
:10029000FEE7000080B586B002AF00F0EDFB00F095
:1002A0003BF8002000F094FA012000F091FA00F0F1
:1002B00084F802F075FA3B1D019302230093104B62
:1002C000C8221049104803F048FCF8603B460193EF
:1002D000022300930D4BC8220D490E4803F03DFC4C
:1002E000B860FB68012B02D002F05EFFFEE7BB683E
:1002F000012B02D002F058FFFEE702F075FAFEE78C
:1003000098590008B0590008E1030008B8590008DE
:10031000D05900088504000880B598B000AF07F1F7
:10032000180348220021184604F053FE3B1D00220A
:100330001A605A609A60DA601A61002000F0A6FE26
:100340000346002B01D000F0E9F81023BB61012324
:100350007B630023BB636023FB6302237B64012375
:10036000BB640123FB6437233B6507237B650223C2
:10037000BB650223FB6507F11803184600F026FF52
:100380000346002B01D000F0C9F80F237B60032344
:10039000BB600023FB6000233B6100237B613B1DAE
:1003A0000521184601F0E8FB0346002B01D000F0C0
:1003B000B5F800BF6037BD4680BD80B500AF0020F6
:1003C00000F026FE0346002B01D000F0A7F800F055
:1003D0003FFE0346002B01D000F0A0F800BF80BD17
:1003E00080B584B000AF78600023FB6002F022FA91
:1003F000034603F59C530833FB6009E0002000F03E
:1004000061FA1C4804F05CFE4FF4FA7002F069FADD
:1004100002F010FA0246FB689342EFD8002000F089
:1004200035FA154B1B68184602F019FA03461A46AE
:10043000124B1A6002F0FEF9034603F59C53083391
:10044000FB6006E0002000F03DFA4FF4FA7002F085
:1004500048FA02F0EFF90246FB689342F2D8084BE3
:100460001B68184602F01CFA03461A46034B1A6032
:10047000BCE700BFB05900086C3F00209C00002082
:10048000703F002080B584B000AF786002F0D2F9F0
:10049000034603F51C531033FB6009E0012000F014
:1004A00011FA114804F00CFE4FF4FA7002F019FA38
:1004B00002F0C0F90246FB689342EFD8012000F039
:1004C000E5F90A4B1B68184602F0EAF903461A469A
:1004D000074B1A60074B1B68184602F0C0F9034629
:1004E0001A46034B1A60D1E7D05900086C3F002030
:1004F0009C000020703F002080B582B000AF786083
:100500007B681B68044A934201D100F0CFFA00BF18
:100510000837BD4680BD00BF0010004080B400AF6A
:10052000FEE7000080B582B000AF124B1B6E114A8F
:1005300043F0010313660F4B1B6E03F001037B6056
:100540007B680C4B9B6D0B4A43F080539365094BC2
:100550009B6D03F080533B603B68002207216FF0E6
:10056000010000F07BFB00F0FDFD00BF0837BD4639
:1005700080BD00BF0010024080B58CB000AF786035
:100580000023FB620023BB6200227968312000F067
:1005900065FB312000F07CFB1E4B9B6D1D4A43F038
:1005A000100393651B4B9B6D03F01003FB60FB680E
:1005B00007F1100207F114031146184601F0D8FCA8
:1005C00001F0C2FCF862FB6A134AA2FB03239B0CF6
:1005D000013BBB62114B124A1A60104B40F2E732EA
:1005E000DA600E4ABB6A53600C4B00221A610B4B57
:1005F00000229A60094801F0BDFD0346002B04D19A
:10060000064801F019FE034600E001231846303782
:10061000BD4680BD0010024083DE1B43743F0020B6
:100620000010004080B500AF024801F075FE00BF29
:1006300080BD00BF743F002080B483B000AF03468C
:10064000FB710F4B1B680E4A43F0807313600D4B18
:100650001B680C4A43F00103136000BF4FF0604376
:100660001B6803F00103002BF8D04FF06042FB79C8
:10067000136000BF0C37BD465DF8047B704700BFB8
:10068000FCED00E0000E00E080B586B000AFF86041
:10069000B9607A6000237B610AE000E000BF014698
:1006A000BB685A1CBA60CAB21A707B6901337B619D
:1006B0007A697B689A42F0DB7B6818461837BD463A
:1006C00080BD80B586B000AFF860B9607A60002365
:1006D0007B6109E0BB685A1CBA601B781846FFF7BB
:1006E000ABFF7B6901337B617A697B689A42F1DBFE
:1006F0007B6818461837BD4680BD80B483B000AF14
:1007000078604FF0FF3318460C37BD465DF8047B28
:10071000704780B483B000AF786039603B684FF4B5
:1007200000525A60002318460C37BD465DF8047B22
:10073000704780B483B000AF7860012318460C374F
:10074000BD465DF8047B704780B485B000AFF860AB
:10075000B9607A60002318461437BD465DF8047B03
:100760007047000080B586B000AF7860144A154B22
:10077000D31A7B617B693B61134B1B68002B02D151
:10078000114B124A1A60104B1A687B6813443A697D
:100790009A4207D204F0E6FB03460C221A604FF09F
:1007A000FF3309E0084B1B68FB60074B1A687B6846
:1007B0001344054A1360FB6818461837BD4680BDD0
:1007C0000000032000080000A000002018400020C6
:1007D00080B58CB000AF0346FB710023FB62FB7950
:1007E000002B0CD1264BDB6C254A43F00803D36465
:1007F000234BDB6C03F008037B617B6919E0204B22
:100800009B6D1F4A43F0805393651D4B9B6D03F016
:1008100080533B613B6900F095FC194BDB6C184A37
:1008200043F04003D364164BDB6C03F04003FB60E2
:10083000FB68FB79134A32F81330BB610123FB617B
:1008400001233B6203237B62FB790F4A52F823307A
:1008500007F118021146184600F028FAFB790A4AF7
:1008600052F82300FB79074A32F813300122194667
:1008700000F09CFBFB6A18463037BD4680BD00BFC8
:1008800000100240000000200400002080B584B069
:1008900000AF0346FB710023FB60FB79074A52F867
:1008A0002300FB79064A32F813300122194600F082
:1008B0007DFBFB6818461037BD4680BD0400002054
:1008C0000000002080B584B000AF0346FB71002318
:1008D000FB60FB79074A52F82320FB79064931F87F
:1008E00013301946104600F079FBFB6818461037A4
:1008F000BD4680BD040000200000002080B400AF91
:10090000064BD3F88830054A43F47003C2F88830A8
:1009100000BFBD465DF8047B704700BF00ED00E0FE
:1009200080B487B000AF4F4B1B6803F00803002B67
:1009300007D14C4BD3F894301B0A03F00F037B61B3
:1009400005E0484B1B681B0903F00F037B61464A17
:100950007B6952F823307B61424B9B6803F00C03A8
:100960000C2B66D801A252F823F000BFA1090008A1
:10097000330A0008330A0008330A0008A9090008EE
:10098000330A0008330A0008330A0008B1090008D6
:10099000330A0008330A0008330A0008B9090008BE
:1009A000324A7B69136048E0304B314A1A6044E0B8
:1009B0002E4B2F4A1A6040E02A4BDB6803F00303FA
:1009C000FB60284BDB681B0903F00F030133BB609E
:1009D000FB68022B03D0FB68032B06D00BE0244AF4
:1009E000BB68B2FBF3F33B610BE0214ABB68B2FB8F
:1009F000F3F33B6105E07A69BB68B2FBF3F33B615B
:100A000000BF184BDB681B0A03F07F023B6902FB47
:100A100003F33B61134BDB685B0E03F0030301330D
:100A20005B007B603A697B68B2FBF3F30F4A1360AB
:100A300003E00E4A7B69136000BF0A4B9B681B09E9
:100A400003F00F030B4AD35C3B60084B1A683B680A
:100A500022FA03F3054A136000BF1C37BD465DF858
:100A6000047B704700100240085A00080C00002068
:100A70000024F400F059000880B582B000AF0023D4
:100A8000FB71042000F0DFF8FFF74AFF0020FFF7BA
:100A900073FD0346002B02D00123FB7101E0FFF739
:100AA00041FDFB7918460837BD4680BD80B400AFD4
:100AB000064B1B781A46064B1B681344044A136006
:100AC00000BFBD465DF8047B704700BF14000020E6
:100AD000C03F002080B400AF034B1B681846BD46E2
:100AE0005DF8047B704700BFC03F002080B485B034
:100AF00000AF78607B6803F00703FB600C4BDB689A
:100B0000BB60BA684FF6FF031340BB60FB681A0274
:100B1000BB68134343F0BF6343F40033BB60044A34
:100B2000BB68D36000BF1437BD465DF8047B7047D7
:100B300000ED00E080B400AF044BDB681B0A03F05B
:100B400007031846BD465DF8047B704700ED00E0E2
:100B500080B483B000AF0346FB7197F90730002BD8
:100B60000BDBFB7903F01F02074997F907305B099C
:100B7000012000FA02F241F8232000BF0C37BD46E5
:100B80005DF8047B704700BF00E100E080B483B0F3
:100B900000AF03463960FB7197F90730002B0ADB81
:100BA0003B68DAB20C4997F907305201D2B20B44D4
:100BB00083F800230AE03B68DAB20849FB7903F0C6
:100BC0000F03043B5201D2B20B441A7600BF0C371C
:100BD000BD465DF8047B704700E100E000ED00E0F9
:100BE00080B489B000AFF860B9607A60FB6803F048
:100BF0000703FB61FB69C3F10703032B28BF032332
:100C0000BB61FB690333062B02D9FB69043B00E09F
:100C100000237B614FF0FF32BB6902FA03F3DA4332
:100C2000BB681A407B699A404FF0FF317B6901FA3B
:100C300003F3D9437B680B40134318462437BD4662
:100C40005DF8047B704780B582B000AF786078684B
:100C5000FFF74CFF00BF0837BD4680BD80B586B0AA
:100C600000AF0346B9607A60FB73FFF763FF7861FA
:100C70007A68B9687869FFF7B3FF024697F90F30D1
:100C800011461846FFF782FF00BF1837BD4680BDEA
:100C900080B582B000AF0346FB7197F90730184664
:100CA000FFF756FF00BF0837BD4680BD80B487B050
:100CB00000AF7860396000237B6158E13B681A68B7
:100CC00001217B6901FA03F31340FB60FB68002BF1
:100CD00000F04A813B685B6803F00303012B05D0F9
:100CE0003B685B6803F00303022B30D17B689B6891
:100CF0003B617B695B00032202FA03F3DB433A6941
:100D000013403B613B68DA687B695B0002FA03F3DE
:100D10003A6913433B617B683A699A607B685B6818
:100D20003B6101227B6902FA03F3DB433A6913401A
:100D30003B613B685B681B0903F001027B6902FAB7
:100D400003F33A6913433B617B683A695A603B6835
:100D50005B6803F00303032B17D07B68DB683B6100
:100D60007B695B00032202FA03F3DB433A69134019
:100D70003B613B689A687B695B0002FA03F33A695E
:100D800013433B617B683A69DA603B685B6803F058
:100D90000303022B23D17B69DA087B68083253F8FE
:100DA00022303B617B6903F007039B000F2202FAAC
:100DB00003F3DB433A6913403B613B681A697B6983
:100DC00003F007039B0002FA03F33A6913433B6104
:100DD0007B69DA087B680832396943F822107B683E
:100DE0001B683B617B695B00032202FA03F3DB4370
:100DF0003A6913403B613B685B6803F003027B691F
:100E00005B0002FA03F33A6913433B617B683A697A
:100E10001A603B685B6803F44033002B00F0A48049
:100E20005A4A7B699B08183352F823303B617B692F
:100E300003F00303DB000F2202FA03F3DB433A69FA
:100E400013403B617B68524A934225D07B68514AEC
:100E500093421FD07B68504A934219D07B684F4A17
:100E6000934213D07B684E4A93420DD07B684D4A23
:100E7000934207D07B684C4A934201D106230CE091
:100E800007230AE0052308E0042306E0032304E027
:100E9000022302E0012300E000237A6902F003024A
:100EA000D20093403A6913433B6138497B699B0800
:100EB00018333A6941F82320344B1B683B61FB68C7
:100EC000DB433A6913403B613B685B6803F4801382
:100ED000002B03D03A69FB6813433B612B4A3B6903
:100EE00013602A4B5B683B61FB68DB433A69134044
:100EF0003B613B685B6803F40013002B03D03A6945
:100F0000FB6813433B61214A3B6953601F4BD3F895
:100F100084303B61FB68DB433A6913403B613B68CB
:100F20005B6803F40033002B03D03A69FB6813437A
:100F30003B61164A3B69C2F88430144BD3F88030C9
:100F40003B61FB68DB433A6913403B613B685B688C
:100F500003F48033002B03D03A69FB6813433B61F1
:100F60000A4A3B69C2F880307B6901337B613B6888
:100F70001A687B6922FA03F3002B7FF49FAE00BF4F
:100F800000BF1C37BD465DF8047B704700F402408B
:100F9000000002420004024200080242000C024229
:100FA00000100242001402420018024280B483B0D2
:100FB00000AF78600B467B8013467B707B78002BFC
:100FC00003D07A887B689A6102E07A887B689A62AB
:100FD00000BF0C37BD465DF8047B704780B485B018
:100FE00000AF78600B467B807B685B69FB607A882A
:100FF000FB6813401A04FB68D9437B880B401A43F3
:101000007B689A6100BF1437BD465DF8047B70476A
:1010100080B485B000AF78600023FB730B4B1B6876
:1010200003F00103002B02D00123FB7307E0074B01
:101030001B6823F0040205497B6813430B60FB7BAC
:1010400018461437BD465DF8047B70470004034022
:1010500080B400AF054B1B68044A43F001031360E2
:1010600000231846BD465DF8047B7047000403402A
:1010700080B400AF044B1B6803F4C0631846BD4640
:101080005DF8047B704700BF0070004080B584B0FD
:1010900000AF7860274B1B6803F4C063BB6000F0AF
:1010A00071F80346B3F5004F01D101233EE0214B17
:1010B000DB6803F40043B3F5004F01D1012335E0B1
:1010C000BA687B689A4201D100232FE0194B1B6854
:1010D00023F4C06217497B6813430B60164B1B68EF
:1010E0005B09164AA2FB0323DB09322202FB03F34E
:1010F000134AA2FB0323DB080133FB6002E0FB6819
:10110000013BFB600B4B5B6903F48063B3F5806FBD
:1011100002D1FB68002BF2D1064B5B6903F48063BC
:10112000B3F5806F01D1032300E000231846103788
:10113000BD4680BD007000400C000020C55A7C0AEE
:10114000CDCCCCCC80B400AF054B5B68044A43F4F3
:101150000073536000BFBD465DF8047B704700BF5D
:101160000070004080B400AF054B9B68044A43F414
:101170008043936000BFBD465DF8047B704700BFAD
:101180000070004080B483B000AF0F4B1B693B6020
:101190003B6803F48053002B03D04FF480537B60F3
:1011A0000AE03B6803F40043002B03D14FF40043F3
:1011B0007B6001E000237B607B6818460C37BD46EE
:1011C0005DF8047B704700BF0070004080B588B0B8
:1011D00000AF78607B68002B02D1012300F0C2BC15
:1011E000A34B9B6803F00C03BB61A14BDB6803F0CE
:1011F00003037B617B681B6803F01003002B00F086
:10120000E980BB69002B06D0BB690C2B40F08380C2
:101210007B69012B7FD1964B1B6803F00203002BE7
:1012200006D07B68DB69002B02D1012300F09ABC59
:101230007B685A6A8E4B1B6803F00803002B04D0AE
:101240008B4B1B6803F0F00305E0894BD3F8943017
:101250001B0903F0F003934224D27B685B6A1846B3
:1012600000F0B8FE0346002B02D0012300F07ABC48
:101270007F4B1B687E4A43F0080313607C4B1B685E
:1012800023F0F0027B685B6A794913430B60784B6B
:101290005B6823F47F427B681B6A1B02744913431B
:1012A0004B6026E0724B1B68714A43F008031360E1
:1012B0006F4B1B6823F0F0027B685B6A6C49134339
:1012C0000B606B4B5B6823F47F427B681B6A1B02DD
:1012D000674913434B60BB69002B0AD17B685B6A8B
:1012E000184600F077FE0346002B02D0012300F0E1
:1012F00039BC00F015FE03465E4A13605E4B1B6866
:101300001846FFF739F90346FB73FB7B002B60D0CF
:10131000FB7B00F027BC7B68DB69002B39D0544B8A
:101320001B68534A43F001031360FFF7D3FB386196
:101330000FE0FFF7CFFB02463B69D31A022B08D917
:101340004B4B1B6803F00203002B02D1032300F078
:1013500009BC474B1B6803F00203002BE9D0444B48
:101360001B68434A43F008031360414B1B6823F09A
:10137000F0027B685B6A3E4913430B603C4B5B6841
:1013800023F47F427B681B6A1B02394913434B607D
:1013900020E0374B1B68364A23F001031360FFF748
:1013A00099FB38610EE0FFF795FB02463B69D31AC3
:1013B000022B07D92E4B1B6803F00203002B01D030
:1013C0000323CFE32A4B1B6803F00203002BEAD16F
:1013D00000E000BF7B681B6803F00103002B7ED098
:1013E000BB69082B05D0BB690C2B0ED17B69032B85
:1013F0000BD11F4B1B6803F40033002B6ED07B68AE
:101400005B68002B6AD10123ACE37B685B68B3F5B2
:10141000803F06D1164B1B68154A43F48033136096
:101420001DE07B685B68B3F5A02F0CD1104B1B68E7
:101430000F4A43F4802313600D4B1B680C4A43F49E
:10144000803313600BE00A4B1B68094A23F4803396
:101450001360074B1B68064A23F4802313607B68E4
:101460005B68002B20D0FFF735FB386115E000BF2B
:10147000001002400C00002010000020FFF72AFBA3
:1014800002463B69D31A642B07D99F4B1B6803F4B0
:101490000033002B01D1032364E39B4B1B6803F44F
:1014A0000033002BEAD01AE0FFF714FB38610EE09E
:1014B000FFF710FB02463B69D31A642B07D9924B06
:1014C0001B6803F40033002B01D003234AE38E4B47
:1014D0001B6803F40033002BEAD100E000BF7B68F7
:1014E0001B6803F00203002B6CD0BB69042B05D0F2
:1014F000BB690C2B19D17B69022B16D1824B1B685F
:1015000003F48063002B05D07B68DB68002B01D1DE
:10151000012327E37C4B5B6823F0FE427B681B6959
:101520001B06794913434B604CE07B68DB68002B5A
:1015300029D0754B1B68744A43F480731360FFF71E
:10154000C9FA38610EE0FFF7C5FA02463B69D31AC3
:10155000022B07D96C4B1B6803F48063002B01D16D
:101560000323FFE2684B1B6803F48063002BEAD07F
:10157000654B5B6823F0FE427B681B691B06624972
:1015800013434B601EE0604B1B685F4A23F480737B
:101590001360FFF79FFA38610EE0FFF79BFA0246EF
:1015A0003B69D31A022B07D9574B1B6803F480639E
:1015B000002B01D00323D5E2534B1B6803F4806357
:1015C000002BEAD17B681B6803F00803002B5FD077
:1015D0007B685B69002B38D07B689B69002B08D146
:1015E000494BD3F89430484A23F01003C2F89430A2
:1015F00007E0454BD3F89430434A43F01003C2F858
:101600009430414BD3F894303F4A43F00103C2F881
:101610009430FFF75FFA38610FE0FFF75BFA02469C
:101620003B69D31A072B08D9374BD3F8943003F012
:101630000203002B01D1032394E2334BD3F89430FF
:1016400003F00203002BE8D022E02F4BD3F89430B4
:101650002D4A23F00103C2F89430FFF73BFA3861BA
:101660000FE0FFF737FA02463B69D31A072B08D978
:10167000254BD3F8943003F00203002B01D0032351
:1016800070E2214BD3F8943003F00203002BE8D131
:101690007B681B6803F00403002B00F031810023FA
:1016A000FB77194B9B6D03F08053002B0DD1164B2C
:1016B0009B6D154A43F080539365134B9B6D03F06C
:1016C0008053BB60BB680123FB77104B1B6803F49E
:1016D0008073002B22D10D4B1B680C4A43F480739E
:1016E0001360FFF7F7F9386112E0FFF7F3F90246EC
:1016F0003B69D31A022B0BD9044B1B6803F480738C
:10170000002B05D103232DE20010024000700040A1
:10171000B84B1B6803F48073002BE6D07B689B6892
:1017200003F00103002B1FD07B689B6803F00403C8
:10173000002B10D0B04BD3F89030AF4A43F00403E5
:10174000C2F89030AC4BD3F89030AB4A43F0010371
:10175000C2F8903018E0A84BD3F89030A64A43F076
:101760000103C2F890300FE0A34BD3F89030A24AA7
:1017700023F00103C2F890309F4BD3F890309E4A7B
:1017800023F00403C2F890307B689B68002B68D07C
:10179000FFF7A0F9386111E0FFF79CF902463B69B9
:1017A000D31A41F28832934208D9934BD3F8903040
:1017B00003F00203002B01D10323D3E18E4BD3F8B6
:1017C000903003F00203002BE6D07B689B6803F0A7
:1017D0008003002B22D0884BD3F89030864A43F008
:1017E0008003C2F8903011E0FFF774F902463B69BC
:1017F000D31A41F28832934208D97F4BD3F8903004
:1018000003F40063002B01D10323ABE17A4BD3F83F
:10181000903003F40063002BE6D068E0764BD3F8F9
:101820009030754A23F08003C2F8903011E0FFF742
:1018300051F902463B69D31A41F28832934208D9E2
:101840006D4BD3F8903003F40063002B01D00323D9
:1018500088E1694BD3F8903003F40063002BE6D1A4
:1018600045E0FFF737F9386111E0FFF733F9024639
:101870003B69D31A41F28832934208D95E4BD3F8C0
:10188000903003F00203002B01D003236AE15A4B8E
:10189000D3F8903003F00203002BE6D1564BD3F877
:1018A000903003F08003002B21D0534BD3F89030BD
:1018B000514A23F08003C2F8903011E0FFF70AF993
:1018C00002463B69D31A41F28832934208D94A4B07
:1018D000D3F8903003F40063002B01D0032341E1DF
:1018E000454BD3F8903003F40063002BE6D1FB7F27
:1018F000012B05D1404B9B6D3F4A23F080539365EC
:101900007B681B6803F02003002B4AD07B689B6A2E
:10191000002B23D0384BD3F89830374A43F00103DB
:10192000C2F89830FFF7D6F838610FE0FFF7D2F829
:1019300002463B69D31A022B08D92F4BD3F89830B3
:1019400003F00203002B01D103230BE12A4BD3F850
:10195000983003F00203002BE8D022E0264BD3F8A6
:101960009830254A23F00103C2F89830FFF7B2F807
:1019700038610FE0FFF7AEF802463B69D31A022B3D
:1019800008D91D4BD3F8983003F00203002B01D087
:101990000323E7E0184BD3F8983003F00203002B41
:1019A000E8D17B68DB6A002B00F0DB80124B9B6880
:1019B00003F00C030C2B00F095807B68DB6A022B94
:1019C0006AD10D4B1B680C4A23F080731360FFF73C
:1019D00081F8386112E0FFF77DF802463B69D31ABF
:1019E000022B0BD9044B1B6803F00073002B05D0AE
:1019F0000323B7E000700040001002405B4B1B68FF
:101A000003F00073002BE6D1584BDA68584B1340B3
:101A10007A68116B7A68526B013A120111437A6845
:101A2000926B120211437A68126C5208013A520505
:101A300011437A68526C5208013A520611437A688F
:101A4000D26BD2060A4349491343CB60474B1B680C
:101A5000464A43F080731360444BDB68434A43F0CB
:101A60008073D360FFF736F838610EE0FFF732F885
:101A700002463B69D31A022B07D93C4B1B6803F083
:101A80000073002B01D103236CE0384B1B6803F07B
:101A90000073002BEAD064E0344B1B68334A23F018
:101AA00080731360FFF716F838610EE0FFF712F845
:101AB00002463B69D31A022B07D92C4B1B6803F053
:101AC0000073002B01D003234CE0284B1B6803F06C
:101AD0000073002BEAD1254BDA682449254B1340CB
:101AE000CB603EE07B68DB6A012B01D1012339E04A
:101AF0001E4BDB687B617B6903F003027B681B6B19
:101B00009A422CD17B6903F0F0027B685B6B013B4E
:101B10001B019A4223D17B6903F4FE427B689B6BD5
:101B20001B029A421BD17B6903F078427B68DB6B16
:101B3000DB069A4213D17B6903F4C0027B681B6CFD
:101B40005B08013B5B059A4209D17B6903F0C062E7
:101B50007B685B6C5B08013B5B069A4201D001230A
:101B600000E0002318462037BD4680BD001002402B
:101B70000C809F01FCFFEEFE80B586B000AF786060
:101B8000396000237B617B68002B01D101231CE1BC
:101B9000904B1B6803F00F033A689A4210D98D4BA3
:101BA0001B6823F00F028B493B6813430B60894B82
:101BB0001B6803F00F033A689A4201D0012304E145
:101BC0007B681B6803F00203002B10D07B689A68C7
:101BD000814B9B6803F0F0039A4208D97E4B9B68C7
:101BE00023F0F0027B689B687B4913438B607B6822
:101BF0001B6803F00103002B00F085807B685B68A5
:101C0000032B1FD1744B1B6803F00073002B01D111
:101C10000123DAE000F042FA38613B696F4A9342EF
:101C200047D96D4B9B6803F0F003002B41D16A4B01
:101C30009B6823F0F003684A43F08003936080239D
:101C40007B6136E07B685B68022B07D1624B1B68C7
:101C500003F40033002B15D10123B6E07B685B68E9
:101C6000002B07D15C4B1B6803F00203002B09D14A
:101C70000123AAE0584B1B6803F48063002B01D1B9
:101C80000123A2E000F0B0F838613B69534A934267
:101C90000FD9514B9B6803F0F003002B09D14E4B39
:101CA0009B6823F0F0034C4A43F080039360802349
:101CB0007B61494B9B6823F003027B685B68464964
:101CC00013438B60FEF706FFF86013E0FEF702FF98
:101CD0000246FB68D31A41F2883293420AD93E4B3E
:101CE0009B6803F00C027B685B689B009A4201D002
:101CF00003236AE0384B9B6803F00C027B685B6847
:101D00009B009A42E2D17B69802B05D1324B9B68C4
:101D1000314A23F0F00393607B681B6803F00203F1
:101D2000002B10D07B689A682B4B9B6803F0F00364
:101D30009A4208D2284B9B6823F0F0027B689B688C
:101D4000254913438B60234B1B6803F00F033A684C
:101D50009A4210D21F4B1B6823F00F021D493B68AB
:101D600013430B601B4B1B6803F00F033A689A4246
:101D700001D0012329E07B681B6803F00403002BDA
:101D800008D0154B9B6823F4E0627B68DB6812493E
:101D900013438B607B681B6803F00803002B09D09A
:101DA0000D4B9B6823F460527B681B69DB000A497A
:101DB00013438B6000F0B4F80346094A1360094BE3
:101DC0001B681846FEF7D8FB034618461837BD4671
:101DD00080BD00BF002002400010024000B4C404D7
:101DE0000C0000201000002080B489B000AF002358
:101DF000FB610023BB61474B9B6803F00C033B6115
:101E0000444BDB6803F00303FB603B69002B05D008
:101E10003B690C2B21D1FB68012B1ED13D4B1B686C
:101E200003F00803002B07D13A4BD3F894301B0A78
:101E300003F00F03FB6105E0364B1B681B0903F041
:101E40000F03FB61344AFB6952F82330FB613B69A5
:101E5000002B0DD1FB69BB610AE03B69042B02D169
:101E60002E4BBB6104E03B69082B01D12B4BBB61BE
:101E70003B690C2B46D1274BDB6803F00303BB60A7
:101E8000244BDB681B0903F00F0301337B60BB6845
:101E9000022B03D0BB68032B0DD019E01F4A7B68CF
:101EA000B2FBF3F31B4AD268120A02F07F0202FB74
:101EB00003F37B6119E0194A7B68B2FBF3F3154A1F
:101EC000D268120A02F07F0202FB03F37B610CE08E
:101ED000FA697B68B2FBF3F30E4AD268120A02F089
:101EE0007F0202FB03F37B6100BF0A4BDB685B0EE2
:101EF00003F0030301335B003B607A693B68B2FB8C
:101F0000F3F3BB61BB6918462437BD465DF8047B1B
:101F1000704700BF00100240085A00080024F40077
:101F200080B500AFFFF760FF0246054B9B681B09B9
:101F300003F00F030349CB5C22FA03F3184680BD7C
:101F400000100240F059000880B500AFFFF7E8FF2D
:101F50000246054B9B681B0A03F007030349CB5C51
:101F600022FA03F3184680BD00100240005A000810
:101F700080B483B000AF786039607B680F221A604C
:101F8000124B9B6803F003027B685A600F4B9B68FF
:101F900003F0F0027B689A600C4B9B6803F4E062EC
:101FA0007B68DA60094B9B68DB0803F4E0627B68BE
:101FB0001A61074B1B6803F00F023B681A6000BFF1
:101FC0000C37BD465DF8047B704700BF001002402F
:101FD0000020024080B586B000AF786000237B61AE
:101FE0002C4B9B6D03F08053002B03D0FFF740F880
:101FF000386114E0274B9B6D264A43F0805393656C
:10200000244B9B6D03F08053FB60FB68FFF730F8B7
:102010003861204B9B6D1F4A23F0805393653B69C9
:10202000002B03D03B69B3F5007F0BD17B68802B7D
:1020300019D97B68A02B02D902237B6113E001230D
:102040007B6110E07B68802B02D903237B610AE06F
:102050007B68802B02D102237B6104E07B68702BBC
:1020600001D101237B610C4B1B6823F00F020A494D
:102070007B6913430B60084B1B6803F00F037A69FD
:102080009A4201D0012300E0002318461837BD46CC
:1020900080BD00BF001002400020024080B487B025
:1020A00000AF314BDB6803F00303FB602E4BDB68B2
:1020B0001B0903F00F030133BB60FB68032B15D032
:1020C000FB68032B39D8FB68012B1CD0FB68022B63
:1020D00033D1264ABB68B2FBF3F3234AD268120A13
:1020E00002F07F0202FB03F33B6129E01F4ABB6859
:1020F000B2FBF3F31C4AD268120A02F07F0202FB21
:1021000003F33B611CE0184B1B6803F00803002B32
:1021100007D1154BD3F894301B0A03F00F037B61F2
:1021200005E0114B1B681B0903F00F037B61104A8C
:102130007B6952F823303B6102E000233B6100BF22
:10214000094BDB685B0E03F0030301335B007B602C
:102150003A697B68B2FBF3F33B603B6818461C3777
:10216000BD465DF8047B7047001002400024F40077
:10217000085A000880B582B000AF78607B68002BF9
:1021800001D1012349E07B6893F83D30DBB2002B9D
:1021900006D17B68002283F83C20786800F041F883
:1021A0007B68022283F83D207B681A687B680433D1
:1021B0001946104600F0F8F97B68012283F84820A0
:1021C0007B68012283F83E207B68012283F83F2050
:1021D0007B68012283F840207B68012283F841203C
:1021E0007B68012283F842207B68012283F8432028
:1021F0007B68012283F844207B68012283F8452014
:102200007B68012283F846207B68012283F84720FF
:102210007B68012283F83D20002318460837BD461D
:1022200080BD80B483B000AF786000BF0C37BD467E
:102230005DF8047B7047000080B485B000AF786023
:102240007B6893F83D30DBB2012B01D001234FE0D6
:102250007B68022283F83D207B681B68DA687B6814
:102260001B6842F00102DA607B681B68234A9342D4
:102270001DD07B681B68B3F1804F18D07B681B684A
:102280001F4A934213D07B681B681E4A93420ED0AC
:102290007B681B681C4A934209D07B681B681B4AF9
:1022A000934204D07B681B68194A934215D17B681E
:1022B0001B689A68174B1340FB60FB68062B15D010
:1022C000FB68B3F5803F11D07B681B681A687B6898
:1022D0001B6842F001021A6008E07B681B681A68FC
:1022E0007B681B6842F001021A6000E000BF002317
:1022F00018461437BD465DF8047B7047002C01403A
:102300000004004000080040000C00400034014080
:10231000004001400700010080B582B000AF786046
:102320007B681B681B6903F00203022B22D17B68C8
:102330001B68DB6803F00203022B1BD17B681B6860
:102340006FF002021A617B6801221A777B681B68B2
:102350009B6903F00303002B03D0786800F005F9B4
:1023600005E0786800F0F7F8786800F008F97B6815
:1023700000221A777B681B681B6903F00403042B97
:1023800022D17B681B68DB6803F00403042B1BD19C
:102390007B681B686FF004021A617B6802221A775F
:1023A0007B681B689B6903F44073002B03D078683B
:1023B00000F0DBF805E0786800F0CDF8786800F010
:1023C000DEF87B6800221A777B681B681B6903F0C4
:1023D0000803082B22D17B681B68DB6803F0080325
:1023E000082B1BD17B681B686FF008021A617B68A1
:1023F00004221A777B681B68DB6903F00303002B58
:1024000003D0786800F0B1F805E0786800F0A3F830
:10241000786800F0B4F87B6800221A777B681B6844
:102420001B6903F01003102B22D17B681B68DB684B
:1024300003F01003102B1BD17B681B686FF0100298
:102440001A617B6808221A777B681B68DB6903F4D2
:102450004073002B03D0786800F087F805E07868B7
:1024600000F079F8786800F08AF87B6800221A7723
:102470007B681B681B6903F00103012B0ED17B688D
:102480001B68DB6803F00103012B07D17B681B6825
:102490006FF001021A617868FEF72EF87B681B68FE
:1024A0001B6903F08003802B0ED17B681B68DB68FF
:1024B00003F08003802B07D17B681B686FF08002DC
:1024C0001A61786800F014F97B681B681B6903F4D3
:1024D0008073B3F5807F0ED17B681B68DB6803F0E7
:1024E0008003802B07D17B681B686FF480721A61B0
:1024F000786800F007F97B681B681B6903F04003EC
:10250000402B0ED17B681B68DB6803F04003402B37
:1025100007D17B681B686FF040021A61786800F091
:1025200038F87B681B681B6903F02003202B0ED151
:102530007B681B68DB6803F02003202B07D17B68D6
:102540001B686FF020021A61786800F0C7F800BFBE
:102550000837BD4680BD80B483B000AF786000BF4F
:102560000C37BD465DF8047B704780B483B000AF84
:10257000786000BF0C37BD465DF8047B704780B4BF
:1025800083B000AF786000BF0C37BD465DF8047BB8
:10259000704780B483B000AF786000BF0C37BD4691
:1025A0005DF8047B7047000080B485B000AF7860B0
:1025B00039607B681B68FB607B68404A934213D09C
:1025C0007B68B3F1804F0FD07B683D4A93420BD0BC
:1025D0007B683C4A934207D07B683B4A934203D0D6
:1025E0007B683A4A934208D1FB6823F07003FB6092
:1025F0003B685B68FA681343FB607B682F4A934231
:102600001FD07B68B3F1804F1BD07B682C4A93426C
:1026100017D07B682B4A934213D07B682A4A934297
:102620000FD07B68294A93420BD07B68284A93429B
:1026300007D07B68274A934203D07B68264A93429F
:1026400008D1FB6823F44073FB603B68DB68FA68E1
:102650001343FB60FB6823F080023B685B69134314
:10266000FB607B68FA681A603B689A687B68DA628C
:102670003B681A687B689A627B68104A93420FD065
:102680007B68124A93420BD07B68114A934207D071
:102690007B68104A934203D07B680F4A934203D170
:1026A0003B681A697B681A637B6801225A6100BF24
:1026B0001437BD465DF8047B704700BF002C014015
:1026C0000004004000080040000C004000340140BD
:1026D00000400140004401400048014080B483B004
:1026E00000AF786000BF0C37BD465DF8047B7047D3
:1026F00080B483B000AF786000BF0C37BD465DF892
:10270000047B704780B483B000AF786000BF0C37A3
:10271000BD465DF8047B704780B483B000AF0346CC
:102720003960FB7197F90730002B0ADB3B68DAB29E
:102730000C4997F907305201D2B20B4483F80023B9
:102740000AE03B68DAB20849FB7903F00F03043B67
:102750005201D2B20B441A7600BF0C37BD465DF869
:10276000047B704700E100E000ED00E080B500AFC1
:10277000054B1B6802F018F80346012B01D000F04E
:1027800009FC00BF80BD00BF10E000E080B500AFD5
:1027900000216FF00400FFF7BFFF00BF80BD000005
:1027A00080B483B000AFEFF305833B603B68002B40
:1027B00003D06FF005037B600CE00A4B1B68002B15
:1027C00005D1084B01221A6000237B6002E04FF024
:1027D000FF337B607B6818460C37BD465DF8047B91
:1027E000704700BFA400002080B582B000AFEFF3B7
:1027F00005833B603B68002B03D06FF005037B60D3
:1028000010E00B4B1B68012B09D1FFF7BFFF084BF2
:1028100002221A6001F0D8FB00237B6002E04FF037
:10282000FF337B607B6818460837BD4680BD00BF1C
:10283000A400002080B582B000AFEFF305833B60B9
:102840003B68002B03D001F0C1FC786002E001F08E
:10285000ADFC78607B6818460837BD4680BD80B502
:1028600086B000AF78607B683B61EFF30583FB6067
:10287000FB68002B03D06FF005037B610BE03B6925
:10288000002B03D16FF003037B6104E000237B6125
:10289000386901F0BDFA7B6918461837BD4680BD1E
:1028A00080B586B000AF78607B683B61EFF305834D
:1028B000FB60FB68002B03D06FF005037B610BE02E
:1028C0003B69002B03D16FF003037B6104E000231D
:1028D0007B61386901F02AFB7B6918461837BD46D1
:1028E00080BD80B584B000AF7860EFF30583BB6036
:1028F000BB68002B03D06FF00503FB6007E00023EB
:10290000FB607B68002B02D0786801F05DFAFB6801
:1029100018461037BD4680BD80B485B000AFF86062
:10292000B9607A60FB68074A1A60BB68064A1A6099
:102930007B684FF400721A6000BF1437BD465DF823
:10294000047B7047A80000200401002080B485B0FB
:1029500000AFF860B9607A60FB68074A1A60BB682C
:10296000064A1A607B684FF480621A6000BF143711
:10297000BD465DF8047B7047040900206009002013
:1029800080B586B000AF78600023FB6001F072FB79
:102990004F4B1B68002B01D100F0F8F84D4B1A6823
:1029A0007B681340002B40F083807B68002B15D0A0
:1029B00008227B6813447B607B6803F00703002BCD
:1029C0000CD07B6823F0070308337B607B6803F03F
:1029D0000703002B02D000F0E7FBFEE77B68002B2B
:1029E00066D03D4B1B687A689A4261D83B4B3B618D
:1029F0003A4B1B687B6104E07B693B617B691B6828
:102A00007B617B695B687A689A4203D97B691B6842
:102A1000002BF1D12E4B1B687A699A4248D03B6952
:102A20001B6808221344FB607B691A683B691A60C3
:102A30007B695A687B68D21A08235B009A4217D9CF
:102A40007A697B681344BB60BB6803F00703002B03
:102A500002D000F0A9FBFEE77B695A687B68D21AB6
:102A6000BB685A607B697A685A60B86800F0F0F811
:102A7000194B1A687B695B68D31A174A1360164BA7
:102A80001A68174B1B689A4203D2134B1B68144AEF
:102A900013607B695A680F4B1B681A437B695A6045
:102AA0007B6900221A600F4B1B6801330D4A1360CB
:102AB00001F0EEFAFB6803F00703002B02D000F0F0
:102AC00073FBFEE7FB6818461837BD4680BD00BFA4
:102AD0002039002034390020243900201839002002
:102AE000283900202C39002080B584B000AF7860F0
:102AF0007B68FB607B68002B3DD008235B42FA6853
:102B00001344FB60FB68BB60BB685A681C4B1B68C6
:102B10001340002B02D100F047FBFEE7BB681B68A7
:102B2000002B02D000F040FBFEE7BB685A68144B54
:102B30001B681340002B1ED0BB681B68002B1AD1EA
:102B4000BB685A680E4B1B68DB431A40BB685A606F
:102B500001F090FABB685A680A4B1B681344094A93
:102B60001360B86800F074F8074B1B680133064A1D
:102B7000136001F08DFA00BF1037BD4680BD00BF65
:102B800034390020243900203039002080B485B049
:102B900000AF41F6B873BB60274BFB60FB6803F0E6
:102BA0000703002B0CD0FB680733FB60FB6823F0A6
:102BB0000703FB60BA68FB68D31A1F4A1344BB6063
:102BC000FB687B601D4A7B6813601C4B00225A60C7
:102BD0007B68BA681344FB600822FB689B1AFB60A1
:102BE000FB6823F00703FB60FB68154A1360144B76
:102BF0001B6800225A60124B1B6800221A607B6817
:102C00003B603B68FA68D21A3B685A600C4B1A6802
:102C10003B681A603B685B680A4A13603B685B6804
:102C2000094A1360094B4FF000421A6000BF143785
:102C3000BD465DF8047B70476019002018390020FC
:102C40002039002028390020243900203439002080
:102C500080B485B000AF7860284BFB6002E0FB6871
:102C60001B68FB60FB681B687A689A42F7D8FB68B0
:102C7000BB60FB685B68BA6813447A689A4208D103
:102C8000FB685A687B685B681A44FB685A60FB689B
:102C90007B607B68BB607B685B68BA681A44FB68D2
:102CA0001B689A4218D1FB681A68154B1B689A4238
:102CB0000DD07B685A68FB681B685B681A447B68A8
:102CC0005A60FB681B681A687B681A6008E00C4B46
:102CD0001A687B681A6003E0FB681A687B681A60F0
:102CE000FA687B689A4202D0FB687A681A6000BF73
:102CF0001437BD465DF8047B704700BF18390020CB
:102D00002039002080B483B000AF78607B6803F185
:102D100008027B685A607B684FF0FF329A607B68DC
:102D200003F108027B68DA607B6803F108027B68C4
:102D30001A617B6800221A6000BF0C37BD465DF83F
:102D4000047B704780B483B000AF78607B6800225A
:102D50001A6100BF0C37BD465DF8047B704780B434
:102D600085B000AF786039607B685B68FB603B686A
:102D7000FA685A60FB689A683B689A60FB689B68CF
:102D80003A685A60FB683A689A603B687A681A61E8
:102D90007B681B685A1C7B681A6000BF1437BD46ED
:102DA0005DF8047B704780B485B000AF786039600F
:102DB0003B681B68BB60BB68B3F1FF3F03D17B6816
:102DC0001B69FB600CE07B680833FB6002E0FB687A
:102DD0005B68FB60FB685B681B68BA689A42F6D266
:102DE000FB685A683B685A603B685B683A689A605F
:102DF0003B68FA689A60FB683A685A603B687A6890
:102E00001A617B681B685A1C7B681A6000BF143704
:102E1000BD465DF8047B704780B485B000AF786034
:102E20007B681B69FB607B685B687A6892689A6064
:102E30007B689B687A6852685A60FB685B687A684E
:102E40009A4203D17B689A68FB685A607B680022CB
:102E50001A61FB681B685A1EFB681A60FB681B68D6
:102E600018461437BD465DF8047B704780B400AF48
:102E70000B4B00221A600B4B00221A600A4B1B6896
:102E80000A4AA2FB03239B09094A013B1360044B36
:102E900007221A6000BFBD465DF8047B704700BF83
:102EA00010E000E018E000E00C000020D34D6210BC
:102EB00014E000E080B582B000AF00237B60094BD6
:102EC0001B68B3F1FF3F02D000F06EF9FEE700F09F
:102ED0006BF900BF7B68002BFCD000BF00BF083738
:102EE000BD4680BD1800002080B400AF084B1B68B1
:102EF000074A43F470031360064B1B68054A43F00E
:102F00004043136000BFBD465DF8047B704700BFBF
:102F100088ED00E034EF00E080B400AF064B4FF0E6
:102F200080521A60BFF34F8FBFF36F8F00BFBD4653
:102F30005DF8047B704700BF04ED00E080B500AF92
:102F400000F032F9054B1B680133044A1360BFF3EC
:102F50004F8FBFF36F8F00BF80BD00BF18000020F0
:102F600080B500AF0A4B1B68002B02D100F01CF9A2
:102F7000FEE7074B1B68013B054A1360044B1B68C7
:102F8000002B02D1002000F01CF900BF80BD00BF63
:102F90001800002080B582B000AF00F005F978601D
:102FA00001F026F90346002B03D0054B4FF0805269
:102FB0001A60786800F005F900BF0837BD4680BD8B
:102FC00004ED00E080B584B000AF78607B689B6959
:102FD000FB60FB68023B1B78FB72FB7A022B04D17F
:102FE000FFF782FF00F0B4F802E000F0DDF8FEE742
:102FF00000BF1037BD4680BD80B485B000AFF8601B
:10300000B9607A603B60FB68043BFB60FB684FF093
:1030100080721A60FB68043BFB607A68FB681A6088
:10302000FB68043BFB60384AFB681A60FB68043BA2
:10303000FB60FB684FF012321A60FB68043BFB60D8
:10304000FB684FF003321A60FB68043BFB60FB68CF
:103050004FF002321A60FB68043BFB60FB684FF0E4
:1030600001321A60FB68043BFB603A68FB681A6037
:10307000FB68043BFB60FB684FF011321A60FB6891
:10308000043BFB60FB684FF010321A60FB68043BA6
:10309000FB60FB684FF009321A60FB68043BFB6081
:1030A000FB684FF008321A60FB68043BFB60FB686A
:1030B0004FF007321A60FB68043BFB60FB684FF07F
:1030C00006321A60FB68043BFB60FB684FF0053278
:1030D0001A60FB68043BFB60FB684FF004321A6027
:1030E000FB68043BFB60FB686FF043021A60FB68FF
:1030F000043BFB60BA68FB681A60FB68184614372B
:10310000BD465DF8047B7047B52E000880B500AF62
:103110000C4B1B680B4A43F47F031360094B1B687D
:10312000084A43F07F431360FFF7A0FE064B0022DE
:103130001A6000F025F801F00DF9FFF7BBFE00233F
:10314000184680BD20ED00E01800002000000000BF
:10315000074A1168086806C881F30B88022181F3C9
:103160001488203080F30988BFF36F8F104700BFA9
:103170003839002000BF00BF000000000000000040
:1031800007480068006880F3088862B661B6BFF33C
:103190004F8FBFF36F8F02DF00BF00BFAFF3008020
:1031A00008ED00E000BF00BFEFF311804FF0A00179
:1031B00081F31188BFF34F8FBFF36F8F704700BF4C
:1031C000184680F31188BFF34F8FBFF36F8F70479E
:1031D00000BF000000000000000000000000000030
:1031E000EFF309801EF0100F08BF20ED108AEFF3F7
:1031F0000B82734620E9FC0F114A116808604FF0FA
:10320000A00080F31188BFF34F8FBFF36F8F01F0E1
:10321000A1F84FF0000080F31188094A116808688E
:10322000B0E8FC0F13F0100F08BFB0EC108A82F367
:103230000B8880F309881847AFF30080AFF3008054
:103240003839002000BF00BF00000000000000006F
:103250001EF0040F0CBFEFF30880EFF30980044960
:10326000084700BFAFF30080AFF30080AFF30080EA
:10327000C52F000800BF00BF80B584B000AF7860E4
:1032800039607B68FB60FB68002B02D1FFF78CFF85
:10329000FEE7FFF753FEFB681A68FB68DB6BF96813
:1032A000096C01FB03F31A44FB689A60FB68002277
:1032B0009A63FB681A68FB685A60FB681A68FB68C7
:1032C000DB6B013BF968096C01FB03F31A44FB68F3
:1032D000DA60FB68FF2283F84420FB68FF2283F852
:1032E00045203B68002B0ED1FB681B69002B14D0D6
:1032F000FB681033184601F0C1F80346002B0CD0D0
:10330000FFF70AFE09E0FB6810331846FFF7FAFCE6
:10331000FB6824331846FFF7F5FCFFF721FE012375
:1033200018461037BD4680BD80B588B002AFF86042
:10333000B9607A603B60FB68002B02D1FFF734FF75
:10334000FEE73B68002B02D1FFF72EFFFEE77B680C
:10335000002B02D0BB68002B01D0012300E000232A
:10336000002B02D1FFF720FFFEE77B68002B02D184
:10337000BB68002B01D1012300E00023002B02D108
:10338000FFF712FFFEE750233B613B69502B02D051
:10339000FFF70AFFFEE73B693B687B617B69002B17
:1033A0000DD07B69012283F8462097F820207B69A5
:1033B000009313467A68B968F86800F005F87B69ED
:1033C00018461837BD4680BD80B584B000AFF860A0
:1033D000B9607A60FB70BB68002B03D1BB69BA6926
:1033E0001A6002E0BB697A681A60BB69FA68DA633E
:1033F000BB69BA681A640121B869FFF73DFFBB6970
:10340000FA7883F84C2000BF1037BD4680BD80B5E8
:103410008AB000AFF860B9607A603B6000237B62DD
:10342000FB683B623B6A002B02D1FFF7BDFEFEE763
:10343000BB68002B03D13B6A1B6C002B01D101231D
:1034400000E00023002B02D1FFF7AEFEFEE73B6851
:10345000022B03D13B6ADB6B012B01D1012300E07E
:103460000023002B02D1FFF79FFEFEE701F09CF93D
:103470000346002B02D17B68002B01D1012300E021
:103480000023002B02D1FFF78FFEFEE7FFF756FD6A
:103490003B6A9A6B3B6ADB6B9A4202D33B68022B16
:1034A0001DD13A68B968386A00F0A4F9F8613B6A3E
:1034B0005B6A002B0AD03B6A2433184600F0DEFF1B
:1034C0000346002B07D0FFF727FD04E0FB69002B24
:1034D00001D0FFF721FDFFF743FD01235CE07B688E
:1034E000002B03D1FFF73CFD002355E07B6A002B46
:1034F00006D107F11403184601F01CF801237B6282
:10350000FFF72EFD00F0B6FDFFF718FD3B6A93F8BC
:1035100044305BB2B3F1FF3F03D13B6A002283F832
:1035200044203B6A93F845305BB2B3F1FF3F03D1CF
:103530003B6A002283F84520FFF712FD3A1D07F190
:1035400014031146184601F00BF80346002B1DD159
:10355000386A00F047FA0346002B11D03B6A10335B
:103560007A681146184600F049FF386A00F0D2F92F
:1035700000F08EFD0346002B88D1FFF7CDFC85E7D8
:10358000386A00F0C7F900F083FD7FE7386A00F081
:10359000C1F900F07DFD002318462837BD4680BDE7
:1035A00080B58AB000AFF860B9607A603B60FB68B4
:1035B0003B623B6A002B02D1FFF7F6FDFEE7BB68DA
:1035C000002B03D13B6A1B6C002B01D1012300E0CF
:1035D0000023002B02D1FFF7E7FDFEE73B68022B3B
:1035E00003D13B6ADB6B012B01D1012300E00023F7
:1035F000002B02D1FFF7D8FDFEE7FFF7D5FDF861FC
:103600003B6A9A6B3B6ADB6B9A4202D33B68022BA4
:103610002DD13B6A93F84530FB763B6A9B6B7B610F
:103620003A68B968386A00F0E5F897F91B30B3F1E9
:10363000FF3F12D13B6A5B6A002B15D03B6A2433F3
:10364000184600F01BFF0346002B0DD07B68002BB3
:103650000AD07B6801221A6006E0FB7E0133DBB2F0
:103660005AB23B6A83F8452001237B6201E00023C4
:103670007B62F869FFF7A5FD7B6A18462837BD46CF
:1036800080BD80B58AB000AFF860B9607A60002371
:103690007B62FB683B623B6A002B02D1FFF784FD33
:1036A000FEE7BB68002B03D13B6A1B6C002B01D1EA
:1036B000012300E00023002B02D1FFF775FDFEE798
:1036C00001F072F80346002B02D17B68002B01D178
:1036D000012300E00023002B02D1FFF765FDFEE788
:1036E000FFF72CFC3B6A9B6BFB61FB69002B19D03D
:1036F000B968386A00F0E8F8FB695A1E3B6A9A63B9
:103700003B6A1B69002B09D03B6A1033184600F056
:10371000B5FE0346002B01D0FFF7FEFBFFF720FCB0
:10372000012363E07B68002B03D1FFF719FC002322
:103730005CE07B6A002B06D107F11403184600F009
:10374000F9FE01237B62FFF70BFC00F093FCFFF70F
:10375000F5FB3B6A93F844305BB2B3F1FF3F03D112
:103760003B6A002283F844203B6A93F845305BB201
:10377000B3F1FF3F03D13B6A002283F84520FFF7F6
:10378000EFFB3A1D07F114031146184600F0E8FE5E
:103790000346002B1DD1386A00F00EF90346002BBA
:1037A00011D03B6A24337A681146184600F026FE91
:1037B000386A00F0AFF800F06BFC0346002B8FD1A5
:1037C000FFF7AAFB8CE7386A00F0A4F800F060FC71
:1037D00086E7386A00F09EF800F05AFC386A00F07C
:1037E000EBF80346002B3FF47BAF00231846283745
:1037F000BD4680BD80B586B000AFF860B9607A6024
:1038000000237B61FB689B6B3B61FB681B6C002B9F
:103810000DD1FB681B68002B4DD1FB689B681846D7
:1038200000F0E0FF7861FB6800229A6043E07B686B
:10383000002B19D1FB685868FB681B6C1A46B968E5
:1038400001F0BAFBFB685A68FB681B6C1A44FB6802
:103850005A60FB685A68FB689B689A422BD3FB68E6
:103860001A68FB685A6026E0FB68D868FB681B6C26
:103870001A46B96801F0A0FBFB68DA68FB681B6CAC
:103880005B421A44FB68DA60FB68DA68FB681B6815
:103890009A4207D2FB689A68FB681B6C5B421A4429
:1038A000FB68DA607B68022B05D13B69002B02D0F4
:1038B0003B69013B3B613B695A1CFB689A637B692E
:1038C00018461837BD4680BD80B582B000AF78601D
:1038D00039607B681B6C002B18D07B68DA687B68CA
:1038E0001B6C1A447B68DA607B68DA687B689B68CB
:1038F0009A4203D37B681A687B68DA607B68D96870
:103900007B681B6C1A46386801F056FB00BF08370D
:10391000BD4680BD80B584B000AF7860FFF70EFB78
:103920007B6893F84530FB7311E07B685B6A002B82
:1039300012D07B682433184600F0A0FD0346002B0C
:1039400001D000F05FFEFB7B013BDBB2FB7397F91C
:103950000F30002BE9DC00E000BF7B68FF2283F81A
:103960004520FFF7FDFAFFF7E9FA7B6893F844304A
:10397000BB7311E07B681B69002B12D07B6810338E
:10398000184600F07BFD0346002B01D000F03AFE04
:10399000BB7B013BDBB2BB7397F90E30002BE9DC3C
:1039A00000E000BF7B68FF2283F84420FFF7D8FACD
:1039B00000BF1037BD4680BD80B584B000AF7860D1
:1039C000FFF7BCFA7B689B6B002B02D10123FB60E5
:1039D00001E00023FB60FFF7C3FAFB6818461037CD
:1039E000BD4680BD80B584B000AF7860FFF7A6FA11
:1039F0007B689A6B7B68DB6B9A4202D10123FB6088
:103A000001E00023FB60FFF7ABFAFB6818461037B4
:103A1000BD4680BD80B485B000AF786039600023BA
:103A2000FB6014E00F4AFB6852F83330002B0BD1D7
:103A30000C49FB683A6841F833200A4AFB68DB000E
:103A400013447A685A6006E0FB680133FB60FB6848
:103A5000072BE7D900BF00BF1437BD465DF8047BD4
:103A6000704700BFC43F002080B586B000AFF8604B
:103A7000B9607A60FB687B61FFF760FA7B6993F855
:103A800044305BB2B3F1FF3F03D17B69002283F87E
:103A900044207B6993F845305BB2B3F1FF3F03D11B
:103AA0007B69002283F84520FFF75AFA7B699B6BFC
:103AB000002B06D17B6924337A68B968184600F078
:103AC000B9FC7869FFF726FF00BF1837BD4680BDF7
:103AD00080B58CB004AFF860B9607A603B60FB6A77
:103AE000002B02D1FFF760FBFEE73B6B002B02D1FE
:103AF000FFF75AFBFEE75C237B617B695C2B02D0FE
:103B0000FFF752FBFEE77B693B6B002B1ED0FB6A85
:103B1000002B1BD03B6BFB61FB69FA6A1A63FB69E4
:103B2000022283F8592000230393FB69029307F1D3
:103B300018030193BB6A00933B687A68B968F86818
:103B400000F050F8F86900F0D7F801E00023BB61FD
:103B5000BB6918462037BD4680BD80B58CB004AF28
:103B6000F860B9603B601346FB80FB889B001846F9
:103B7000FEF706FF78617B69002B0ED05C20FEF714
:103B8000FFFEF861FB69002B03D0FB697A691A63B9
:103B900005E07869FEF7A8FF01E00023FB61FB69FF
:103BA000002B17D0FB69002283F85920FA880023E4
:103BB0000393FB690293FB6A0193BB6A00933B6822
:103BC000B968F86800F00EF8F86900F095F801237C
:103BD000BB6102E04FF0FF33BB61BB691846203781
:103BE000BD4680BD80B586B000AFF860B9607A6030
:103BF0003B60BB6A186B7B689B001A46A52101F0ED
:103C0000E8F9BB6A1A6B7B6803F18043013B9B00B8
:103C100013443B613B6923F007033B613B6903F0BD
:103C20000703002B02D0FFF7BFFAFEE7BB68002BAB
:103C30001FD000237B6112E0BA687B6913441978B6
:103C4000BA6A7B69134434330A461A70BA687B69CE
:103C500013441B78002B06D07B6901337B617B69A1
:103C60000F2BE9D900E000BFBB6A002283F8432094
:103C700003E0BB6A002283F834203B6A372B01D96A
:103C800037233B62BB6A3A6ADA62BB6A3A6ADA6431
:103C9000BB6A00221A65BB6A04331846FFF752F864
:103CA000BB6A18331846FFF74DF8BB6ABA6A1A6147
:103CB0003B6AC3F13802BB6A9A61BB6ABA6A5A624C
:103CC000BB6A00225A65BB6A002283F85820BB6A8F
:103CD000196B3B68FA683869FFF78EF90246BB6AD0
:103CE0001A607B6A002B02D07B6ABA6A1A6000BF36
:103CF0001837BD4680BD000080B582B000AF786047
:103D0000FFF71CF92A4B1B680133294A1360294B22
:103D10001B68002B09D1274A7B681360244B1B6862
:103D2000012B10D100F08AFC0DE0234B1B68002B07
:103D300009D1204B1B68DA6A7B68DB6A9A4202D899
:103D40001C4A7B6813601D4B1B6801331B4A1360C0
:103D50001A4B1A687B685A647B68DA6A184B1B68CE
:103D60009A4203D97B68DB6A154A13607B68DA6A7A
:103D700013469B0013449B00124A1A447B68043389
:103D800019461046FEF7EBFFFFF7EAF80A4B1B68EF
:103D9000002B08D0074B1B68DA6A7B68DB6A9A4203
:103DA00001D2FFF7B9F800BF0837BD4680BD00BF9C
:103DB0000C3E002038390020183E0020283E00200C
:103DC000143E00203C39002080B584B000AF7860FC
:103DD0000023FB607B68002B0FD00C4B1B68002B73
:103DE00002D0FFF7E1F9FEE700F044F9002178681E
:103DF00000F056FD00F04CF9F860FB68002B01D193
:103E0000FFF78AF800BF1037BD4680BD343E002062
:103E100080B584B000AF7860FFF790F87B68002B26
:103E200002D1294B1B6800E07B68FB60FB68043310
:103E30001846FEF7F1FFFB689B6A002B04D0FB6875
:103E400018331846FEF7E8FFFB68043319461F488D
:103E5000FEF785FFFB6893F85830DBB2012B03D1E6
:103E6000FB68002283F85820FFF77AF8184B1B688C
:103E7000002B05D0FFF762F800F076FCFFF770F832
:103E8000114B1B68FA689A4219D1114B1B68002B21
:103E900009D0104B1B68002B02D0FFF785F9FEE715
:103EA000FFF73AF80BE0094B1A680B4B1B689A4274
:103EB00003D1054B00221A6001E000F04BFA00BF6D
:103EC0001037BD4680BD00BF38390020F83D0020C6
:103ED000183E0020343E00200C3E002080B584B007
:103EE00000AF78600023FB607B68BB607B68002BC1
:103EF00002D1FFF759F9FEE7BB685B69094A9342B3
:103F00000AD1BB689B6A084A934205D0BB689B6A8A
:103F1000002B01D10123FB60FB6818461037BD461A
:103F200080BD00BFF83D0020CC3D002080B584B0AE
:103F300000AF78607B68FB607B68002B02D1FFF7E5
:103F400033F9FEE71D4B1B68FA689A4232D0FB68D2
:103F5000002B2FD0FEF7F2FFF868FFF7BFFF0346F4
:103F6000002B25D0FB6804331846FEF755FFFB688D
:103F7000DA6A134B1B689A4203D9FB68DB6A104A62
:103F80001360FB68DA6A13469B0013449B000D4ADA
:103F90001A44FB68043319461046FEF7E0FEFB683E
:103FA000DA6A064B1B68DB6A9A4201D3FEF7B4FF5C
:103FB000FEF7D6FF00BF1037BD4680BD3839002060
:103FC000143E00203C39002080B588B004AF0023A7
:103FD000BB6000237B603A46391D07F10803184691
:103FE000FEF79AFC39687B68BA6802920193002355
:103FF000009300230A4619491948FFF769FD034653
:10400000184A1360174B1B68002B02D00123FB607A
:1040100001E00023FB60FB68012B02D100F094FC5F
:10402000F860FB68012B0ED1FFF7BEF80E4B4FF086
:10403000FF321A600D4B01221A600D4B00221A60EC
:10404000FFF764F806E0FB68B3F1FF3F02D1FFF72A
:10405000ABF8FEE700BF1037BD4680BDD859000859
:104060001D460008303E00202C3E0020183E002057
:10407000103E002080B400AF044B1B680133034A9C
:10408000136000BFBD465DF8047B7047343E0020DE
:1040900080B584B000AF0023FB600023BB603B4BC6
:1040A0001B68002B02D1FFF77FF8FEE7FEF746FF03
:1040B000364B1B68013B354A1360344B1B68002BA1
:1040C0005CD1334B1B68002B58D02FE0314BDB68A1
:1040D000DB68FB60FB6818331846FEF79DFEFB6843
:1040E00004331846FEF798FEFB68DA6A2A4B1B6811
:1040F0009A4203D9FB68DB6A274A1360FB68DA6AD5
:1041000013469B0013449B00244A1A44FB68043363
:1041100019461046FEF723FEFB68DA6A204B1B683F
:10412000DB6A9A4202D31F4B01221A60194B1B68AB
:10413000002BCBD1FB68002B01D000F015FB1A4BF4
:104140001B687B607B68002B10D000F051F80346A1
:10415000002B02D0134B01221A607B68013B7B606D
:104160007B68002BF1D1104B00221A600D4B1B68AD
:10417000002B03D00123BB60FEF7CEFEFEF7F0FE5E
:10418000BB6818461037BD4680BD00BF343E0020D6
:104190000C3E0020CC3D0020143E00203C39002085
:1041A00038390020203E00201C3E002080B483B01F
:1041B00000AF054B1B687B607B6818460C37BD461B
:1041C0005DF8047B704700BF103E002080B483B0D0
:1041D00000AF00237B60054B1B683B603B681846C3
:1041E0000C37BD465DF8047B704700BF103E0020D1
:1041F00080B586B000AF00237B614B4B1B68002B62
:1042000040F08780494B1B6801333B61474A3B695B
:1042100013603B69002B18D1454B1B681B68002BB2
:1042200002D0FEF7C1FFFEE7414B1B68FB60414B2C
:104230001B683F4A13603F4AFB6813603E4B1B6894
:1042400001333D4A136000F08FFA3C4B1B683A691A
:104250009A4249D3364B1B681B68002B04D1374B5D
:104260004FF0FF321A603FE0314B1B68DB68DB68C0
:10427000BB60BB685B687B603A697B689A4203D22B
:104280002E4A7B6813602FE0BB6804331846FEF7A4
:10429000C3FDBB689B6A002B04D0BB68183318466B
:1042A000FEF7BAFDBB68DA6A254B1B689A4203D950
:1042B000BB68DB6A224A1360BB68DA6A13469B005C
:1042C00013449B001F4A1A44BB6804331946104626
:1042D000FEF745FDBB68DA6A1B4B1B68DB6A9A4236
:1042E000B8D301237B61B5E7174B1B68DA6A154920
:1042F00013469B0013449B000B441B68012B01D900
:1043000001237B61114B1B68002B07D001237B61CC
:1043100004E00F4B1B6801330D4A13607B6918469C
:104320001837BD4680BD00BF343E0020103E00203F
:10433000C43D0020C83D0020243E00202C3E00202B
:10434000143E00203C39002038390020203E002057
:104350001C3E002080B582B000AF234B1B68002BB1
:1043600003D0224B01221A6039E0204B00221A6050
:104370001F4B1B687B6008E07B68002B02D1FEF7B7
:1043800013FFFEE77B68013B7B601A497A6813469E
:104390009B0013449B000B441B68002BECD07A68F5
:1043A00013469B0013449B00124A13443B603B6836
:1043B0005B685A683B685A603B685A683B680833D8
:1043C0009A4204D13B685B685A683B685A603B6814
:1043D0005B68DB68084A1360054A7B68136000BFAE
:1043E0000837BD4680BD00BF343E0020203E00207F
:1043F000143E00203C3900203839002080B582B0BE
:1044000000AF786039607B68002B02D1FEF7CCFEEC
:10441000FEE7074B1B68183319467868FEF7C3FCA4
:104420000121386800F03CFA00BF0837BD4680BD66
:104430003839002080B584B000AFF860B9607A6088
:10444000FB68002B02D1FEF7AFFEFEE70A4B1B68AC
:1044500018331946F868FEF782FC7B68002B02D0FF
:104460004FF0FF33BB607968B86800F019FA00BFFD
:104470001037BD4680BD00BF3839002080B584B0FC
:1044800000AF78607B68DB68DB68BB60BB68002BD3
:1044900002D1FEF789FEFEE7BB6818331846FEF727
:1044A000BBFC1E4B1B68002B1DD1BB680433184698
:1044B000FEF7B2FCBB68DA6A194B1B689A4203D953
:1044C000BB68DB6A164A1360BB68DA6A13469B0056
:1044D00013449B00134A1A44BB6804331946104620
:1044E000FEF73DFC05E0BB68183319460E48FEF7A1
:1044F00036FCBB68DA6A0D4B1B68DB6A9A4205D949
:104500000123FB600A4B01221A6001E00023FB60DB
:10451000FB6818461037BD4680BD00BF343E002002
:10452000143E00203C390020CC3D002038390020CA
:10453000203E002080B483B000AF7860064B1A683C
:104540007B681A60054B1A687B685A6000BF0C379D
:10455000BD465DF8047B7047243E0020103E0020DD
:1045600080B586B000AF786039607B68002B02D1DF
:10457000FEF71AFEFEE73B68002B02D1FEF714FEA1
:10458000FEE7FEF7DBFC1D4B1B683B617B685B684D
:104590003A69D31AFB603B681B68B3F1FF3F02D155
:1045A00000237B6123E07B681A68154B1B689A42E5
:1045B00007D07B685B683A699A4202D301237B612A
:1045C00015E03B681B68FA689A420BD23B681A6890
:1045D000FB68D21A3B681A607868FFF7ABFF0023CC
:1045E0007B6104E03B6800221A6001237B61FEF7D7
:1045F000B7FC7B6918461837BD4680BD103E0020C9
:10460000243E002080B400AF034B01221A6000BF9B
:10461000BD465DF8047B7047203E002080B582B027
:1046200000AF786000F04AF8034B1B68012BF9D902
:10463000FEF772FCF6E700BF3C39002080B582B07F
:1046400000AF00237B600CE07A6813469B001344A4
:104650009B00124A13441846FEF754FB7B68013353
:104660007B607B68372BEFD90D48FEF74BFB0D487D
:10467000FEF748FB0C48FEF745FB0C48FEF742FBF3
:104680000B48FEF73FFB0B4B054A1A600A4B054AE5
:104690001A6000BF0837BD4680BD00BF3C3900200E
:1046A0009C3D0020B03D0020CC3D0020E03D00209E
:1046B000F83D0020C43D0020C83D002080B582B0F8
:1046C00000AF19E0FEF73AFC104BDB68DB687B605B
:1046D0007B6804331846FEF79FFB0D4B1B68013BBC
:1046E0000B4A13600B4B1B68013B0A4A1360FEF731
:1046F00037FC786800F010F8064B1B68002BE1D1FE
:1047000000BF00BF0837BD4680BD00BFE03D0020B0
:104710000C3E0020F43D002080B582B000AF7860F0
:104720007B6893F85930002B08D17B681B6B1846C7
:10473000FEF7DAF97868FEF7D7F910E07B6893F8AE
:104740005930012B03D17868FEF7CEF907E07B687A
:1047500093F85930022B02D0FEF726FDFEE700BF8A
:104760000837BD4680BD000080B483B000AF0C4B5D
:104770001B681B68002B04D10A4B4FF0FF321A60F4
:1047800008E0074B1B68DB68DB687B607B685B6865
:10479000044A136000BF0C37BD465DF8047B7047C8
:1047A000C43D00202C3E002080B483B000AF0B4BF2
:1047B0001B68002B02D101237B6008E0084B1B68BB
:1047C000002B02D102237B6001E000237B607B6829
:1047D00018460C37BD465DF8047B7047183E002034
:1047E000343E002080B584B000AF78607B68BB6049
:1047F0000023FB607B68002B46D0264B1B68BA6801
:104800009A4202D0FEF7D0FCFEE7BB681B6D002B7E
:1048100002D1FEF7C9FCFEE7BB681B6D5A1EBB68E0
:104820001A65BB68DA6ABB68DB6C9A422CD0BB683D
:104830001B6D002B28D1BB6804331846FEF7ECFA39
:10484000BB68DA6CBB68DA62BB68DB6AC3F138024A
:10485000BB689A61BB68DA6A0F4B1B689A4203D93E
:10486000BB68DB6A0C4A1360BB68DA6A13469B00BC
:1048700013449B00094A1A44BB6804331946104686
:10488000FEF76DFA0123FB60FB6818461037BD4642
:1048900080BD00BF38390020143E00203C39002084
:1048A00080B584B000AF78603960214B1B68FB6035
:1048B000204B1B6804331846FEF7AEFA7B68B3F151
:1048C000FF3F0AD13B68002B07D01A4B1B6804330B
:1048D00019461948FEF743FA26E0FA687B68134444
:1048E000BB60144B1B68BA685A60BA68FB689A428E
:1048F00009D2124B1A680F4B1B6804331946104635
:10490000FEF751FA10E00E4B1A680A4B1B6804338D
:1049100019461046FEF747FA0A4B1B68BA689A42D6
:1049200002D2084ABB68136000BF1037BD4680BD85
:10493000103E002038390020F83D0020C83D0020FE
:10494000C43D00202C3E002080B588B004AF002379
:10495000FB6000F0C7FA184B1B68002B20D0002327
:10496000BB6000237B603A46391D07F108031846F7
:10497000FDF7ECFF39687B68BA6802920193022365
:10498000009300230A460D490D48FFF7A1F803469E
:104990000C4A13600B4B1B68002B01D00123FB60FA
:1049A000FB68002B02D1FEF7FFFBFEE7FB68184611
:1049B0001037BD4680BD00BF683E0020E0590008AA
:1049C000DD4A00086C3E002080B58AB000AFF86078
:1049D000B9607A603B6000237B62FB68002B02D1E8
:1049E000FEF7E2FBFEE71A4B1B68002B2AD0BB68E0
:1049F0007B617B68BB61FB68FB61BB68052B18DCD6
:104A0000FFF7D2FE0346022B09D1114B186807F1BC
:104A1000140100233A6BFEF7FAFC786212E00C4BAB
:104A2000186807F1140100230022FEF7F0FC7862F9
:104A300008E0074B186807F1140100233A68FEF7F5
:104A4000AFFD78627B6A18462837BD4680BD00BF3F
:104A5000683E002080B586B002AF786039601E4B9A
:104A60001B68DB68DB68FB60FB6804331846FEF7F5
:104A7000D3F9FB6893F8283003F00403002B1AD015
:104A8000FB689A697B68D1187B683A68F86800F01F
:104A9000C1F80346002B17D00023009300237A6847
:104AA0000021F868FFF790FFB860BB68002B0BD1BE
:104AB000FEF77AFBFEE7FB6893F8283023F001034A
:104AC000DAB2FB6883F82820FB681B6AF86898470D
:104AD00000BF1037BD4680BD603E002080B584B069
:104AE00000AF786007F10803184600F04FF8F8604F
:104AF000BB681946F86800F003F800F0CDF8F1E75C
:104B000080B584B000AF78603960FFF7B3FA07F181
:104B10000803184600F05EF8F860BB68002B2AD145
:104B20003B68002B0AD17A68FB689A4206D8FFF7E7
:104B3000AFFAF9687868FFF78DFF1EE03B68002B3D
:104B400008D0104B1B681B68002B01D1012300E02B
:104B500000233B600C4B18687A68FB68D31A3A68EC
:104B60001946FEF781FFFFF793FA0346002B04D1A5
:104B7000FEF7D2F901E0FFF78BFA00BF1037BD4610
:104B800080BD00BF643E0020683E002080B485B038
:104B900000AF78600E4B1B681B68002B01D101220F
:104BA00000E000227B681A607B681B68002B05D13F
:104BB000074B1B68DB681B68FB6001E00023FB60A0
:104BC000FB6818461437BD465DF8047B704700BF8C
:104BD000603E002080B584B000AF7860FFF7E6FA51
:104BE000F8600B4B1B68FA689A4205D200F01EF978
:104BF0007B6801221A6002E07B6800221A60044A86
:104C0000FB681360FB6818461037BD4680BD00BFC7
:104C1000703E002080B586B000AFF860B9607A6061
:104C20003B6000237B61FB68BA685A60FB68FA68E6
:104C30001A61BA687B689A4212D87A683B68D21ABD
:104C4000FB689B699A4202D301237B611BE0104BF6
:104C50001A68FB68043319461046FEF7A4F812E000
:104C60007A683B689A4206D2BA683B689A4202D395
:104C700001237B6107E0074B1A68FB680433194680
:104C80001046FEF790F87B6918461837BD4680BD80
:104C9000643E0020603E002080B58CB002AFB2E0E0
:104CA000BB68002B11DA07F1080304337B627B6ACF
:104CB000002B02D1FEF778FAFEE77B6A1B687A6A5E
:104CC00050687A6A926811469847BB68002BC0F218
:104CD00099803B693B623B6A5B69002B04D03B6A6D
:104CE00004331846FEF798F83B1D1846FFF772FF8D
:104CF000F861BB68092B00F2868001A252F823F00C
:104D0000294D0008294D0008294D00088D4D000847
:104D1000A14D0008DB4D0008294D0008294D000871
:104D20008D4D0008A14D00083B6A93F8283043F0F0
:104D30000103DAB23B6A83F82820FA683B6A9B6970
:104D4000D118FB68FA69386AFFF764FF0346002B45
:104D500059D03B6A1B6A386A98473B6A93F82830F7
:104D600003F00403002B4ED0FA683B6A9B691A4497
:104D70000023009300230021386AFFF725FEB86165
:104D8000BB69002B3FD1FEF70FFAFEE73B6A93F8B1
:104D9000283023F00103DAB23B6A83F8282032E09E
:104DA0003B6A93F8283043F00103DAB23B6A83F898
:104DB0002820FA683B6A9A613B6A9B69002B02D102
:104DC000FEF7F2F9FEE73B6A9A69FB69D118FB69C5
:104DD000FA69386AFFF71EFF15E03B6A93F828303E
:104DE00003F00203002B03D1386AFDF77DFE0AE0D1
:104DF0003B6A93F8283023F00103DAB23B6A83F868
:104E0000282000E000BF084B1B6807F108010022C2
:104E10001846FEF736FC0346002B7FF441AF00BF77
:104E200000BF2837BD4680BD683E002080B588B0F1
:104E300002AF40E0294B1B68DB681B683B61274BD6
:104E40001B68DB68DB68FB60FB6804331846FDF712
:104E5000E3FFFB681B6AF8689847FB6893F8283003
:104E600003F00403002B26D0FB689B693A691344C6
:104E7000BB60BA683B699A420ED9FB68BA685A604F
:104E8000FB68FA681A61154B1A68FB680433194607
:104E90001046FDF788FF0EE00023009300233A69D7
:104EA0000021F868FFF790FD78607B68002B02D145
:104EB000FEF77AF9FEE7094B1B681B68002BB9D196
:104EC000064B1B687B61064B1B68044A1360044A4F
:104ED0007B69136000BF1837BD4680BD603E00206F
:104EE000643E002080B582B002AFFEF727F8154B74
:104EF0001B68002B20D11448FDF704FF1348FDF771
:104F000001FF134B104A1A60124B104A1A6000231B
:104F10000093114B114A10210A20FEF705FA0346AF
:104F2000084A1360074B1B68002B05D0054B1B6814
:104F30000B491846FEF76EFDFEF712F800BFBD469E
:104F400080BD00BF683E0020383E00204C3E00205F
:104F5000603E0020643E0020143F0020743E00208C
:104F6000E8590008014B1868704700BF1C0000207A
:104F700070B50D4D00260D4C641BA410A64209D13E
:104F80000B4D00260B4C00F0F1FC641BA410A64254
:104F900005D170BD55F8043B01369847EEE755F84A
:104FA000043B01369847F2E7B05A0008B05A0008AF
:104FB000B05A0008B45A00080A44431E914200D176
:104FC000704710B511F8014B914203F8014FF9D128
:104FD00010BD02440346934200D1704703F8011B01
:104FE000F9E7000070B50E46054618B183690BB9A4
:104FF00000F046FAAB69AC6813B9284600F040FAF5
:105000002C4B9C4220D16C68636EDB0705D4A389CE
:10501000980502D4A06D00F0D1FAA38919071DD517
:105020002369DBB1013EA36816F8011F013BA360B1
:1050300039BB002B38DA22460A21284600F048F80E
:10504000013011D00A2511E01B4B9C4201D1AC6804
:10505000DAE71A4B9C4208BFEC68D5E721462846A0
:1050600000F088F80028DDD04FF0FF35636EDA07D6
:1050700005D4A3899B0502D4A06D00F0A0FA2846B0
:1050800070BD002B04DAA2699A4206DC0A2904D01A
:1050900023685A1C22601970C5E72246284600F092
:1050A00017F80130BFD1DFE723680A255A1C2260B8
:1050B0001D70DBE76C5A00088C5A00084C5A000837
:1050C000024B01461868FFF78DBF00BF1C0000208F
:1050D000F8B50E461446054618B183690BB900F0C1
:1050E000CFF9214B9C422BD16C68A369A360A389A3
:1050F0001A072FD523696BB32369F6B220683746A8
:10510000C01A6369834204DC2146284600F024F972
:1051100030BBA3680130013BA36023685A1C2260A6
:105120001E706369834204D0A389DB0706D50A2E6B
:1051300004D12146284600F00FF988B93846F8BD59
:105140000A4B9C4201D1AC68CFE7094B9C4208BF97
:10515000EC68CAE72146284600F00CF80028CBD0BE
:105160004FF0FF37EAE700BF6C5A00088C5A00087E
:105170004C5A0008324B70B51D6806460C4625B1E6
:10518000AB6913B9284600F07BF92E4B9C420FD136
:105190006C68A389B4F90C2019072CD4DD0611D44E
:1051A0000923336042F040034FF0FF30A3813EE01B
:1051B000254B9C4201D1AC68EBE7244B9C4208BFD5
:1051C000EC68E6E7580712D5616B41B104F144037E
:1051D000994202D0304600F057FA00236363A38956
:1051E00023F02403A3810023636023692360A38940
:1051F00043F00803A38123694BB9A38903F4207307
:10520000B3F5007F03D02146304600F0FDF9A089B8
:10521000B4F90C2010F001030AD00023A3606369E5
:105220005B42A361236943B910F08000BAD170BD1D
:10523000810758BF6369A360F4E70020F7E700BF68
:105240001C0000206C5A00088C5A00084C5A0008B8
:105250008A892DE9F041054610070C4658D44B6861
:10526000002B05DC0B6C002B02DC0020BDE8F0817C
:10527000E66A002EF9D0002312F480522F682B60CA
:1052800032D0606DA3895A0705D56368C01A636B75
:105290000BB1236CC01A00230246E66A2846216A35
:1052A000B047431CA38906D129681D292CD8294A57
:1052B000CA40D60728D50022D9046260226922603C
:1052C00004D5421C01D12B6803B96065616B2F6066
:1052D0000029CAD004F14403994202D0284600F0C4
:1052E000D3F900206063C1E7216A01232846B04753
:1052F000411CC7D12B68002BC4D01D2B01D0162B0D
:1053000001D12F60B1E7A38943F04003A381ADE74A
:105310000F69002FA9D093070E680F600CBF4B696F
:105320000023A6EB07088B60B8F1000F9DDD434614
:105330003A46216A2846A66AB047002806DCA389B7
:105340004FF0FF3043F04003A3818FE70744A8EB01
:105350000008E9E70100402038B50B6905460C4616
:1053600013B90025284638BD18B183690BB900F080
:1053700087F8144B9C421BD16C68B4F90C30002B9D
:10538000EFD0626ED00704D4990502D4A06D00F06E
:1053900015F928462146FFF75BFF636E0546DA07DD
:1053A000E0D4A3899B05DDD4A06D00F008F9D9E70E
:1053B000054B9C4201D1AC68DFE7044B9C4208BF1F
:1053C000EC68DAE76C5A00088C5A00084C5A00085E
:1053D000002310B504468360818119464366C2816B
:1053E00008228361C0E90033C0E904335C30FFF771
:1053F000F0FD054B24626362044BA362044BE3623D
:10540000044B236310BD00BFFD5700081F58000860
:10541000575800087B580008014900F0AFB800BF9A
:105420005953000870B54A1E68250E46554305F1CC
:10543000740100F079F9044640B1002105F16802D9
:10544000C0E900160C30A060FFF7C3FD204670BD18
:10545000014800F0B3B800BF0C400020014800F044
:10546000AEB800BF0C400020014800F0A7B800BF54
:1054700007400020014800F0A2B800BF074000200C
:1054800010B50446FFF7F0FFA3691BB1BDE810405B
:10549000FFF7F0BFC4E9123323652046124B134ACD
:1054A0001B68A262A34204BF0123A36100F020F89D
:1054B0006060204600F01CF8A060204600F018F85C
:1054C00000220421E0606068FFF782FF01220921C9
:1054D000A068FFF77DFF02221221E068FFF778FF46
:1054E0000123A361D2E700BF485A000819540008FD
:1054F000F8B50746FFF7ACFF1E4B1E68B36913B93A
:105500003046FFF7BDFF4836D6E90134013B03D5ED
:1055100033680BB33668F7E7B4F90C50D5B9164BBE
:1055200004F158006566E36000F047F8FFF796FF66
:105530000822294604F15C002560A561C4E90155F3
:10554000C4E90455FFF745FDC4E90D55C4E91255FA
:105550002046F8BD6834D9E704213846FFF762FFDA
:10556000044630600028D5D1FFF778FF0C233B605C
:10557000EEE700BF485A00080100FFFF2DE9F8439D
:105580000646884600F148040027D4E90195B9F1A0
:10559000010905D52468002CF7D13846BDE8F88309
:1055A000AB89012B07D9B5F90E30013303D0294659
:1055B0003046C04707436835E9E770477047704792
:1055C00070B50E46B1F90E1096B0144600291D466E
:1055D00007DA00232B60B3891A0610D44FF48063D6
:1055E0000EE06A4600F070F90028F2DB019A02F43E
:1055F0007042A2F500535A425A412A60EEE7402316
:105600000020236016B070BD8B8973B59D070646D8
:105610000C4607D504F1470323602361012363612E
:1056200002B070BD01AB6A46FFF7CAFF009905469C
:10563000304600F079F848B9B4F90C309A05EFD447
:1056400023F0030343F00203A381E3E70D4BB362AE
:10565000A389206043F080032061A381009B6361E4
:10566000019B5BB1B4F90E10304600F03FF928B150
:10567000A38923F0030343F00103A381A089054319
:10568000A581CDE71954000837B5002947D051F856
:10569000043C0C1F0190002BB8BFE41800F048F93F
:1056A000204A01981368154633B96360146003B04B
:1056B000BDE8304000F042B9A3420BD9216862181E
:1056C000934202BF1A685B685218636008BF226089
:1056D0002C60ECE71A465B680BB1A342FAD911685B
:1056E0005518A5420BD12468214454181160A342D7
:1056F000DDD11C685B68214453601160D7E702D993
:105700000C230360D3E7256861198B4202BF196837
:105710005B684919636008BF21605460C7E703B044
:1057200030BD00BF643F0020F8B5CD1C064625F013
:10573000030508350C2D38BF0C25002D01DBA942CF
:1057400003D90C2333600020F8BD00F0F1F82149A3
:105750000A6814469CB9204F3B6823B9214630465D
:1057600000F03CF838602946304600F037F8431C1A
:1057700023D10C233046336000F0E0F8E3E72368E0
:105780005B1B17D40B2B03D923601C44256004E05A
:105790006368A2420CBF0B605360304600F0CEF845
:1057A00004F10B00231D20F00700C21ACCD01B1AF5
:1057B000A350C9E722466468CCE7C41C24F0030464
:1057C000A042E3D0211A304600F008F80130DDD1C4
:1057D000CFE700BF643F0020683F002038B50023BA
:1057E000054D044608462B60FAF7BCFF431C02D166
:1057F0002B6803B1236038BD1040002010B50C4663
:10580000B1F90E1000F0A0F80028ABBF636DA389BA
:105810001B1823F48053ACBF6365A38110BD2DE931
:10582000F0411F468B8905460C46DB05164605D51B
:1058300002230022B1F90E1000F068F8A389324665
:10584000B4F90E10284623F48053A3813B46BDE8EB
:10585000F04100F017B810B50C46B1F90E1000F089
:1058600055F8431CA38915BF606523F4805343F4A6
:105870008053A38118BFA38110BDB1F90E1000F0B1
:1058800013B8000038B50446064D084611460022FC
:105890002A601A46FAF715FF431C02D12B6803B1A0
:1058A000236038BD1040002038B50023054D044664
:1058B00008462B60FAF721FF431C02D12B6803B185
:1058C000236038BD1040002038B50023064D044643
:1058D000084611462B60FAF71CFF431C02D12B68C7
:1058E00003B1236038BD00BF1040002038B500234D
:1058F000054D044608462B60FAF71BFF431C02D1F6
:105900002B6803B1236038BD1040002038B5044631
:10591000064D0846114600222A601A46FAF714FF7F
:10592000431C02D12B6803B1236038BD1040002016
:105930000148FFF743BE00BF084000200148FFF7C1
:105940003EBE00BF0840002038B50446064D08465C
:10595000114600222A601A46FAF796FE431C02D12D
:105960002B6803B1236038BD10400020F8B500BF9C
:10597000F8BC08BC9E467047F8B500BFF8BC08BC30
:085980009E4670470000000084
:10598800544852454144310054485245414432003C
:1059980048656C6C6F20576F726C642066726F6D0F
:1059A800205461736B2D31005461736B310000001A
:1059B80048656C6C6F20576F726C642066726F6DEF
:1059C800205461736B2D32005461736B32000000F8
:1059D80049444C4500000000546D72205376630022
:1059E800546D72510000000000000000000000002B
:1059F800010203040607080900000000010203046D
:105A0800A0860100400D0300801A060000350C0036
:105A180040420F0080841E0000093D0000127A00F9
:105A28000024F40000366E010048E801006CDC0236
:105A3800000000000000000000000000000000005E
:105A4800200000200000000000000000000000000E
:105A5800000000000000000000000000000000003E
:105A6800000000000000000000000000000000002E
:105A7800000000000000000000000000000000001E
:105A8800000000000000000000000000000000000E
:105A980000000000000000000000000000000000FE
:085AA8000000000000000000F6
:085AB0002502000800000000BF
:085AB8000102000800000000DB
:105AC00008000010000C02420018024200093D00CC
:105AD0000800000001000000AAAAAAAA20000020D5
