:020000040800F2
:10000000000003204102000891020008910200084C
:100010009102000891020008910200089102000874
:10002000000000000000000000000000212C00087B
:100030009102000800000000B12B0008792200089E
:100040009102000891020008910200089102000844
:100050009102000891020008910200089102000834
:100060009102000891020008910200089102000824
:100070009102000891020008910200089102000814
:100080009102000891020008910200089102000804
:1000900091020008910200089102000891020008F4
:1000A00091020008910200089102000891020008E4
:1000B00091020008910200089102000891020008D4
:1000C00091020008910200089102000891020008C4
:1000D00091020008910200089102000891020008B4
:1000E00091020008910200089102000891020008A4
:1000F0009102000891020008910200089102000894
:1001000091020008350600089102000891020008DB
:100110009102000891020008910200089102000873
:100120009102000891020008910200089102000863
:100130009102000891020008910200089102000853
:100140009102000891020008910200089102000843
:100150009102000891020008910200089102000833
:100160009102000891020008910200089102000823
:100170009102000800000000910200080000000049
:100180009102000891020008910200089102000803
:1001900091020008910200089102000891020008F3
:1001A00091020008910200089102000891020008E3
:1001B00091020008910200089102000891020008D3
:1001C00091020008910200089102000891020008C3
:1001D00091020008910200089102000891020008B3
:1001E00091020008910200089102000891020008A3
:0801F00091020008000000006C
:1002000010B5054C237833B9044B13B1044800E012
:1002100000BF0123237010BD780000200000000003
:100220001C58000808B5034B1BB10349034800E004
:1002300000BF08BD000000007C0000201C58000822
:10024000DFF834D0002103E00C4B5B5843500431FD
:100250000B480C4B42189A42F6D30B4A02E000239B
:1002600042F8043B094B9A42F9D300F0B9FA04F082
:10027000C1FA00F00FF8FEE700000320285A00083A
:1002800000000020780000207800002010400020AE
:10029000FEE7000080B586B002AF00F05FFB00F023
:1002A00063F800F0B2F801F0F7FF0022022103200A
:1002B00002F072FD0346214A1360204B1B68002B9D
:1002C00038D01F4B0193022300931E4B4FF4FA7258
:1002D0001D491E4803F071F9F8601D4B019302237C
:1002E00000931C4B4FF4FA721B49184803F065F950
:1002F000B860FB68012B02D002F03EFCFEE7BB6851
:10030000012B02D002F038FCFEE700230193012309
:10031000009300234FF4FA721049114803F04DF98D
:1003200078607B68012B02D002F026FCFEE703F028
:100330009FFA02E00B4804F01DFBFEE7683F002037
:10034000603F002020590008385800083104000898
:10035000643F00202259000840580008485800080F
:10036000790400085058000880B598B000AF07F134
:10037000180348220021184604F06DFA3B1D0022A4
:100380001A605A609A60DA601A61002000F03EFC40
:100390000346002B01D000F0C9F81023BB610123F4
:1003A0007B630023BB636023FB6302237B64012325
:1003B000BB640123FB6437233B6507237B65022372
:1003C000BB650223FB6507F11803184600F0AEFC7D
:1003D0000346002B01D000F0A9F80F237B60032314
:1003E000BB600023FB6000233B6100237B613B1D5E
:1003F0000521184601F070F90346002B01D000F0EA
:1004000095F800BF6037BD4680BD80B500AF0020C5
:1004100000F0BEFB0346002B01D000F087F800F08F
:10042000D7FB0346002B01D000F080F800BF80BD51
:1004300080B584B000AF78606423FB600B4B186814
:100440000023FA68796802F0FCFCB860BB68012BF5
:1004500003D0074804F08EFAF0E7064804F08AFA61
:100460004FF47A7003F0E0F9E8E700BF683F00203E
:10047000645800088458000880B586B000AF7860E2
:100480004FF47A737B611A4B1B68184602F0CCFE5E
:100490000346032B02D1174804F06CFA144B1B6877
:1004A000184602F0C1FE0346002B02D1124804F0A8
:1004B00061FA0F4B1B6807F10C017A69184602F0CC
:1004C000FAFD38613B69012B0ED17B7B002B05D1F6
:1004D0003B7B1946094804F0C7F9D4E73B7B194632
:1004E000074804F0C1F9CEE7064804F043FACAE72A
:1004F000683F002090580008A0580008B458000831
:10050000CC580008E458000880B582B000AF78608D
:100510007B681B68044A934201D100F039FA00BF9E
:100520000837BD4680BD00BF0010004080B400AF5A
:10053000FEE7000080B582B000AF124B1B6E114A7F
:1005400043F0010313660F4B1B6E03F001037B6046
:100550007B680C4B9B6D0B4A43F080539365094BB2
:100560009B6D03F080533B603B68002207216FF0D6
:10057000010000F0E5FA00F0A5FB00BF0837BD461A
:1005800080BD00BF0010024080B58CB000AF786025
:100590000023FB620023BB6200227968312000F057
:1005A000CFFA312000F0E6FA1E4B9B6D1D4A43F056
:1005B000100393651B4B9B6D03F01003FB60FB68FE
:1005C00007F1100207F114031146184601F080FAF2
:1005D00001F06AFAF862FB6A134AA2FB03239B0C40
:1005E000013BBB62114B124A1A60104B40F2E732DA
:1005F000DA600E4ABB6A53600C4B00221A610B4B47
:1006000000229A60094801F065FB0346002B04D1E3
:10061000064801F0C1FB034600E0012318463037CD
:10062000BD4680BD0010024083DE1B436C3F0020AE
:100630000010004080B500AF024801F01DFC00BF73
:1006400080BD00BF6C3F002080B483B000AF034684
:10065000FB710F4B1B680E4A43F0807313600D4B08
:100660001B680C4A43F00103136000BF4FF0604366
:100670001B6803F00103002BF8D04FF06042FB79B8
:10068000136000BF0C37BD465DF8047B704700BFA8
:10069000FCED00E0000E00E080B586B000AFF86031
:1006A000B9607A6000237B610AE000E000BF014688
:1006B000BB685A1CBA60CAB21A707B6901337B618D
:1006C0007A697B689A42F0DB7B6818461837BD462A
:1006D00080BD80B586B000AFF860B9607A60002355
:1006E0007B6109E0BB685A1CBA601B781846FFF7AB
:1006F000ABFF7B6901337B617A697B689A42F1DBEE
:100700007B6818461837BD4680BD80B483B000AF03
:1007100078604FF0FF3318460C37BD465DF8047B18
:10072000704780B483B000AF786039603B684FF4A5
:1007300000525A60002318460C37BD465DF8047B12
:10074000704780B483B000AF7860012318460C373F
:10075000BD465DF8047B704780B485B000AFF8609B
:10076000B9607A60002318461437BD465DF8047BF3
:100770007047000080B586B000AF7860144A154B12
:10078000D31A7B617B693B61134B1B68002B02D141
:10079000114B124A1A60104B1A687B6813443A696D
:1007A0009A4207D204F020F803460C221A604FF058
:1007B000FF3309E0084B1B68FB60074B1A687B6836
:1007C0001344054A1360FB6818461837BD4680BDC0
:1007D00000000320000800009400002010400020CA
:1007E00080B400AF064BD3F88830054A43F4700359
:1007F000C2F8883000BFBD465DF8047B704700BF7B
:1008000000ED00E080B487B000AF4F4B1B6803F0F1
:100810000803002B07D14C4BD3F894301B0A03F08C
:100820000F037B6105E0484B1B681B0903F00F03B6
:100830007B61464A7B6952F823307B61424B9B685F
:1008400003F00C030C2B66D801A252F823F000BF72
:10085000850800081709000817090008170900088B
:100860008D08000817090008170900081709000873
:10087000950800081709000817090008170900085B
:100880009D080008324A7B69136048E0304B314ACA
:100890001A6044E02E4B2F4A1A6040E02A4BDB6876
:1008A00003F00303FB60284BDB681B0903F00F0315
:1008B0000133BB60FB68022B03D0FB68032B06D01F
:1008C0000BE0244ABB68B2FBF3F33B610BE0214A27
:1008D000BB68B2FBF3F33B6105E07A69BB68B2FB2E
:1008E000F3F33B6100BF184BDB681B0A03F07F0288
:1008F0003B6902FB03F33B61134BDB685B0E03F0C8
:10090000030301335B007B603A697B68B2FBF3F35E
:100910000F4A136003E00E4A7B69136000BF0A4B65
:100920009B681B0903F00F030B4AD35C3B60084B29
:100930001A683B6822FA03F3054A136000BF1C37AC
:10094000BD465DF8047B7047001002403C5900082A
:10095000000000200024F4002459000880B582B073
:1009600000AF0023FB71042000F0DFF8FFF74AFF1F
:100970000020FFF709FE0346002B02D00123FB7184
:1009800001E0FFF7D7FDFB7918460837BD4680BD6B
:1009900080B400AF064B1B781A46064B1B68134405
:1009A000044A136000BFBD465DF8047B704700BF7A
:1009B00008000020B83F002080B400AF034B1B6844
:1009C0001846BD465DF8047B704700BFB83F002065
:1009D00080B485B000AF78607B6803F00703FB60EC
:1009E0000C4BDB68BB60BA684FF6FF031340BB607B
:1009F000FB681A02BB68134343F0BF6343F4003340
:100A0000BB60044ABB68D36000BF1437BD465DF8C5
:100A1000047B704700ED00E080B400AF044BDB685E
:100A20001B0A03F007031846BD465DF8047B7047B8
:100A300000ED00E080B483B000AF0346FB7197F98E
:100A40000730002B0BDBFB7903F01F02074997F9F6
:100A500007305B09012000FA02F241F8232000BFB1
:100A60000C37BD465DF8047B704700BF00E100E035
:100A700080B483B000AF03463960FB7197F907304B
:100A8000002B0ADB3B68DAB20C4997F907305201B8
:100A9000D2B20B4483F800230AE03B68DAB208497B
:100AA000FB7903F00F03043B5201D2B20B441A76D8
:100AB00000BF0C37BD465DF8047B704700E100E0E5
:100AC00000ED00E080B489B000AFF860B9607A60F2
:100AD000FB6803F00703FB61FB69C3F10703032B0A
:100AE00028BF0323BB61FB690333062B02D9FB69D3
:100AF000043B00E000237B614FF0FF32BB6902FA48
:100B000003F3DA43BB681A407B699A404FF0FF3128
:100B10007B6901FA03F3D9437B680B401343184602
:100B20002437BD465DF8047B704780B582B000AFC6
:100B300078607868FFF74CFF00BF0837BD4680BD7E
:100B400080B586B000AF0346B9607A60FB73FFF7EB
:100B500063FF78617A68B9687869FFF7B3FF024686
:100B600097F90F3011461846FFF782FF00BF18377C
:100B7000BD4680BD80B582B000AF0346FB7197F9DA
:100B800007301846FFF756FF00BF0837BD4680BD47
:100B900080B485B000AF78600023FB730B4B1B68FB
:100BA00003F00103002B02D00123FB7307E0074B86
:100BB0001B6823F0040205497B6813430B60FB7B31
:100BC00018461437BD465DF8047B704700040340A7
:100BD00080B400AF054B1B68044A43F00103136067
:100BE00000231846BD465DF8047B704700040340AF
:100BF00080B400AF044B1B6803F4C0631846BD46C5
:100C00005DF8047B704700BF0070004080B584B081
:100C100000AF7860274B1B6803F4C063BB6000F033
:100C200061F80346B3F5004F01D101233EE0214BAB
:100C3000DB6803F40043B3F5004F01D1012335E035
:100C4000BA687B689A4201D100232FE0194B1B68D8
:100C500023F4C06217497B6813430B60164B1B6873
:100C60005B09164AA2FB0323DB09322202FB03F3D2
:100C7000134AA2FB0323DB080133FB6002E0FB689D
:100C8000013BFB600B4B5B6903F48063B3F5806F42
:100C900002D1FB68002BF2D1064B5B6903F4806341
:100CA000B3F5806F01D1032300E00023184610370D
:100CB000BD4680BD0070004000000020C55A7C0A7F
:100CC000CDCCCCCC80B400AF054B9B68044A43F438
:100CD0008043936000BFBD465DF8047B704700BF52
:100CE0000070004080B483B000AF0F4B1B693B60C5
:100CF0003B6803F48053002B03D04FF480537B6098
:100D00000AE03B6803F40043002B03D14FF4004397
:100D10007B6001E000237B607B6818460C37BD4692
:100D20005DF8047B704700BF0070004080B588B05C
:100D300000AF78607B68002B02D1012300F0C2BCB9
:100D4000A34B9B6803F00C03BB61A14BDB6803F072
:100D500003037B617B681B6803F01003002B00F02A
:100D6000E980BB69002B06D0BB690C2B40F0838067
:100D70007B69012B7FD1964B1B6803F00203002B8C
:100D800006D07B68DB69002B02D1012300F09ABCFE
:100D90007B685A6A8E4B1B6803F00803002B04D053
:100DA0008B4B1B6803F0F00305E0894BD3F89430BC
:100DB0001B0903F0F003934224D27B685B6A184658
:100DC00000F0B8FE0346002B02D0012300F07ABCED
:100DD0007F4B1B687E4A43F0080313607C4B1B6803
:100DE00023F0F0027B685B6A794913430B60784B10
:100DF0005B6823F47F427B681B6A1B0274491343C0
:100E00004B6026E0724B1B68714A43F00803136085
:100E10006F4B1B6823F0F0027B685B6A6C491343DD
:100E20000B606B4B5B6823F47F427B681B6A1B0281
:100E3000674913434B60BB69002B0AD17B685B6A2F
:100E4000184600F077FE0346002B02D0012300F085
:100E500039BC00F015FE03465E4A13605E4B1B680A
:100E60001846FFF791FB0346FB73FB7B002B60D01A
:100E7000FB7B00F027BC7B68DB69002B39D0544B2F
:100E80001B68534A43F001031360FFF795FD386177
:100E90000FE0FFF791FD02463B69D31A022B08D9F8
:100EA0004B4B1B6803F00203002B02D1032300F01D
:100EB00009BC474B1B6803F00203002BE9D0444BED
:100EC0001B68434A43F008031360414B1B6823F03F
:100ED000F0027B685B6A3E4913430B603C4B5B68E6
:100EE00023F47F427B681B6A1B02394913434B6022
:100EF00020E0374B1B68364A23F001031360FFF7ED
:100F00005BFD38610EE0FFF757FD02463B69D31ADF
:100F1000022B07D92E4B1B6803F00203002B01D0D4
:100F20000323CFE32A4B1B6803F00203002BEAD113
:100F300000E000BF7B681B6803F00103002B7ED03C
:100F4000BB69082B05D0BB690C2B0ED17B69032B29
:100F50000BD11F4B1B6803F40033002B6ED07B6852
:100F60005B68002B6AD10123ACE37B685B68B3F557
:100F7000803F06D1164B1B68154A43F4803313603B
:100F80001DE07B685B68B3F5A02F0CD1104B1B688C
:100F90000F4A43F4802313600D4B1B680C4A43F443
:100FA000803313600BE00A4B1B68094A23F480333B
:100FB0001360074B1B68064A23F4802313607B6889
:100FC0005B68002B20D0FFF7F7FC386115E000BF0D
:100FD000001002400000002004000020FFF7ECFC9D
:100FE00002463B69D31A642B07D99F4B1B6803F455
:100FF0000033002B01D1032364E39B4B1B6803F4F4
:101000000033002BEAD01AE0FFF7D6FC38610EE07F
:10101000FFF7D2FC02463B69D31A642B07D9924BE7
:101020001B6803F40033002B01D003234AE38E4BEB
:101030001B6803F40033002BEAD100E000BF7B689B
:101040001B6803F00203002B6CD0BB69042B05D096
:10105000BB690C2B19D17B69022B16D1824B1B6803
:1010600003F48063002B05D07B68DB68002B01D183
:10107000012327E37C4B5B6823F0FE427B681B69FE
:101080001B06794913434B604CE07B68DB68002BFF
:1010900029D0754B1B68744A43F480731360FFF7C3
:1010A0008BFC38610EE0FFF787FC02463B69D31AE0
:1010B000022B07D96C4B1B6803F48063002B01D112
:1010C0000323FFE2684B1B6803F48063002BEAD024
:1010D000654B5B6823F0FE427B681B691B06624917
:1010E00013434B601EE0604B1B685F4A23F4807320
:1010F0001360FFF761FC38610EE0FFF75DFC02460C
:101100003B69D31A022B07D9574B1B6803F4806342
:10111000002B01D00323D5E2534B1B6803F48063FB
:10112000002BEAD17B681B6803F00803002B5FD01B
:101130007B685B69002B38D07B689B69002B08D1EA
:10114000494BD3F89430484A23F01003C2F8943046
:1011500007E0454BD3F89430434A43F01003C2F8FC
:101160009430414BD3F894303F4A43F00103C2F826
:101170009430FFF721FC38610FE0FFF71DFC0246B9
:101180003B69D31A072B08D9374BD3F8943003F0B7
:101190000203002B01D1032394E2334BD3F89430A4
:1011A00003F00203002BE8D022E02F4BD3F8943059
:1011B0002D4A23F00103C2F89430FFF7FDFB38619C
:1011C0000FE0FFF7F9FB02463B69D31A072B08D95A
:1011D000254BD3F8943003F00203002B01D00323F6
:1011E00070E2214BD3F8943003F00203002BE8D1D6
:1011F0007B681B6803F00403002B00F0318100239F
:10120000FB77194B9B6D03F08053002B0DD1164BD0
:101210009B6D154A43F080539365134B9B6D03F010
:101220008053BB60BB680123FB77104B1B6803F442
:101230008073002B22D10D4B1B680C4A43F4807342
:101240001360FFF7B9FB386112E0FFF7B5FB024608
:101250003B69D31A022B0BD9044B1B6803F4807330
:10126000002B05D103232DE2001002400070004046
:10127000B84B1B6803F48073002BE6D07B689B6837
:1012800003F00103002B1FD07B689B6803F004036D
:10129000002B10D0B04BD3F89030AF4A43F004038A
:1012A000C2F89030AC4BD3F89030AB4A43F0010316
:1012B000C2F8903018E0A84BD3F89030A64A43F01B
:1012C0000103C2F890300FE0A34BD3F89030A24A4C
:1012D00023F00103C2F890309F4BD3F890309E4A20
:1012E00023F00403C2F890307B689B68002B68D021
:1012F000FFF762FB386111E0FFF75EFB02463B69D6
:10130000D31A41F28832934208D9934BD3F89030E4
:1013100003F00203002B01D10323D3E18E4BD3F85A
:10132000903003F00203002BE6D07B689B6803F04B
:101330008003002B22D0884BD3F89030864A43F0AC
:101340008003C2F8903011E0FFF736FB02463B699C
:10135000D31A41F28832934208D97F4BD3F89030A8
:1013600003F40063002B01D10323ABE17A4BD3F8E4
:10137000903003F40063002BE6D068E0764BD3F89E
:101380009030754A23F08003C2F8903011E0FFF7E7
:1013900013FB02463B69D31A41F28832934208D9C3
:1013A0006D4BD3F8903003F40063002B01D003237E
:1013B00088E1694BD3F8903003F40063002BE6D149
:1013C00045E0FFF7F9FA386111E0FFF7F5FA024658
:1013D0003B69D31A41F28832934208D95E4BD3F865
:1013E000903003F00203002B01D003236AE15A4B33
:1013F000D3F8903003F00203002BE6D1564BD3F81C
:10140000903003F08003002B21D0534BD3F8903061
:10141000514A23F08003C2F8903011E0FFF7CCFA74
:1014200002463B69D31A41F28832934208D94A4BAB
:10143000D3F8903003F40063002B01D0032341E183
:10144000454BD3F8903003F40063002BE6D1FB7FCB
:10145000012B05D1404B9B6D3F4A23F08053936590
:101460007B681B6803F02003002B4AD07B689B6AD3
:10147000002B23D0384BD3F89830374A43F0010380
:10148000C2F89830FFF798FA38610FE0FFF794FA46
:1014900002463B69D31A022B08D92F4BD3F8983058
:1014A00003F00203002B01D103230BE12A4BD3F8F5
:1014B000983003F00203002BE8D022E0264BD3F84B
:1014C0009830254A23F00103C2F89830FFF774FAE8
:1014D00038610FE0FFF770FA02463B69D31A022B1E
:1014E00008D91D4BD3F8983003F00203002B01D02C
:1014F0000323E7E0184BD3F8983003F00203002BE6
:10150000E8D17B68DB6A002B00F0DB80124B9B6824
:1015100003F00C030C2B00F095807B68DB6A022B38
:101520006AD10D4B1B680C4A23F080731360FFF7E0
:1015300043FA386112E0FFF73FFA02463B69D31ADB
:10154000022B0BD9044B1B6803F00073002B05D052
:101550000323B7E000700040001002405B4B1B68A3
:1015600003F00073002BE6D1584BDA68584B134058
:101570007A68116B7A68526B013A120111437A68EA
:10158000926B120211437A68126C5208013A5205AA
:1015900011437A68526C5208013A520611437A6834
:1015A000D26BD2060A4349491343CB60474B1B68B1
:1015B000464A43F080731360444BDB68434A43F070
:1015C0008073D360FFF7F8F938610EE0FFF7F4F9A4
:1015D00002463B69D31A022B07D93C4B1B6803F028
:1015E0000073002B01D103236CE0384B1B6803F020
:1015F0000073002BEAD064E0344B1B68334A23F0BD
:1016000080731360FFF7D8F938610EE0FFF7D4F963
:1016100002463B69D31A022B07D92C4B1B6803F0F7
:101620000073002B01D003234CE0284B1B6803F010
:101630000073002BEAD1254BDA682449254B13406F
:10164000CB603EE07B68DB6A012B01D1012339E0EE
:101650001E4BDB687B617B6903F003027B681B6BBD
:101660009A422CD17B6903F0F0027B685B6B013BF3
:101670001B019A4223D17B6903F4FE427B689B6B7A
:101680001B029A421BD17B6903F078427B68DB6BBB
:10169000DB069A4213D17B6903F4C0027B681B6CA2
:1016A0005B08013B5B059A4209D17B6903F0C0628C
:1016B0007B685B6C5B08013B5B069A4201D00123AF
:1016C00000E0002318462037BD4680BD00100240D0
:1016D0000C809F01FCFFEEFE80B586B000AF786005
:1016E000396000237B617B68002B01D101231CE161
:1016F000904B1B6803F00F033A689A4210D98D4B48
:101700001B6823F00F028B493B6813430B60894B26
:101710001B6803F00F033A689A4201D0012304E1E9
:101720007B681B6803F00203002B10D07B689A686B
:10173000814B9B6803F0F0039A4208D97E4B9B686B
:1017400023F0F0027B689B687B4913438B607B68C6
:101750001B6803F00103002B00F085807B685B6849
:10176000032B1FD1744B1B6803F00073002B01D1B6
:101770000123DAE000F042FA38613B696F4A934294
:1017800047D96D4B9B6803F0F003002B41D16A4BA6
:101790009B6823F0F003684A43F080039360802342
:1017A0007B6136E07B685B68022B07D1624B1B686C
:1017B00003F40033002B15D10123B6E07B685B688E
:1017C000002B07D15C4B1B6803F00203002B09D1EF
:1017D0000123AAE0584B1B6803F48063002B01D15E
:1017E0000123A2E000F0B0F838613B69534A93420C
:1017F0000FD9514B9B6803F0F003002B09D14E4BDE
:101800009B6823F0F0034C4A43F0800393608023ED
:101810007B61494B9B6823F003027B685B68464908
:1018200013438B60FFF7C8F8F86013E0FFF7C4F8C4
:101830000246FB68D31A41F2883293420AD93E4BE2
:101840009B6803F00C027B685B689B009A4201D0A6
:1018500003236AE0384B9B6803F00C027B685B68EB
:101860009B009A42E2D17B69802B05D1324B9B6869
:10187000314A23F0F00393607B681B6803F0020396
:10188000002B10D07B689A682B4B9B6803F0F00309
:101890009A4208D2284B9B6823F0F0027B689B6831
:1018A000254913438B60234B1B6803F00F033A68F1
:1018B0009A4210D21F4B1B6823F00F021D493B6850
:1018C00013430B601B4B1B6803F00F033A689A42EB
:1018D00001D0012329E07B681B6803F00403002B7F
:1018E00008D0154B9B6823F4E0627B68DB681249E3
:1018F00013438B607B681B6803F00803002B09D03F
:101900000D4B9B6823F460527B681B69DB000A491E
:1019100013438B6000F0B4F80346094A1360094B87
:101920001B681846FEF730FE034618461837BD46BA
:1019300080BD00BF002002400010024000B4C4047B
:10194000000000200400002080B489B000AF002314
:10195000FB610023BB61474B9B6803F00C033B61B9
:10196000444BDB6803F00303FB603B69002B05D0AD
:101970003B690C2B21D1FB68012B1ED13D4B1B6811
:1019800003F00803002B07D13A4BD3F894301B0A1D
:1019900003F00F03FB6105E0364B1B681B0903F0E6
:1019A0000F03FB61344AFB6952F82330FB613B694A
:1019B000002B0DD1FB69BB610AE03B69042B02D10E
:1019C0002E4BBB6104E03B69082B01D12B4BBB6163
:1019D0003B690C2B46D1274BDB6803F00303BB604C
:1019E000244BDB681B0903F00F0301337B60BB68EA
:1019F000022B03D0BB68032B0DD019E01F4A7B6874
:101A0000B2FBF3F31B4AD268120A02F07F0202FB18
:101A100003F37B6119E0194A7B68B2FBF3F3154AC3
:101A2000D268120A02F07F0202FB03F37B610CE032
:101A3000FA697B68B2FBF3F30E4AD268120A02F02D
:101A40007F0202FB03F37B6100BF0A4BDB685B0E86
:101A500003F0030301335B003B607A693B68B2FB30
:101A6000F3F3BB61BB6918462437BD465DF8047BC0
:101A7000704700BF001002403C5900080024F400E9
:101A800080B500AFFFF760FF0246054B9B681B095E
:101A900003F00F030349CB5C22FA03F3184680BD21
:101AA000001002402459000880B500AFFFF7E8FF9E
:101AB0000246054B9B681B0A03F007030349CB5CF6
:101AC00022FA03F3184680BD001002403459000882
:101AD00080B483B000AF786039607B680F221A60F1
:101AE000124B9B6803F003027B685A600F4B9B68A4
:101AF00003F0F0027B689A600C4B9B6803F4E06291
:101B00007B68DA60094B9B68DB0803F4E0627B6862
:101B10001A61074B1B6803F00F023B681A6000BF95
:101B20000C37BD465DF8047B704700BF00100240D3
:101B30000020024080B586B000AF786000237B6152
:101B40002C4B9B6D03F08053002B03D0FFF750F814
:101B5000386114E0274B9B6D264A43F08053936510
:101B6000244B9B6D03F08053FB60FB68FFF740F84C
:101B70003861204B9B6D1F4A23F0805393653B696E
:101B8000002B03D03B69B3F5007F0BD17B68802B22
:101B900019D97B68A02B02D902237B6113E00123B2
:101BA0007B6110E07B68802B02D903237B610AE014
:101BB0007B68802B02D102237B6104E07B68702B61
:101BC00001D101237B610C4B1B6823F00F020A49F2
:101BD0007B6913430B60084B1B6803F00F037A69A2
:101BE0009A4201D0012300E0002318461837BD4671
:101BF00080BD00BF001002400020024080B487B0CA
:101C000000AF314BDB6803F00303FB602E4BDB6856
:101C10001B0903F00F030133BB60FB68032B15D0D6
:101C2000FB68032B39D8FB68012B1CD0FB68022B07
:101C300033D1264ABB68B2FBF3F3234AD268120AB7
:101C400002F07F0202FB03F33B6129E01F4ABB68FD
:101C5000B2FBF3F31C4AD268120A02F07F0202FBC5
:101C600003F33B611CE0184B1B6803F00803002BD7
:101C700007D1154BD3F894301B0A03F00F037B6197
:101C800005E0114B1B681B0903F00F037B61104A31
:101C90007B6952F823303B6102E000233B6100BFC7
:101CA000094BDB685B0E03F0030301335B007B60D1
:101CB0003A697B68B2FBF3F33B603B6818461C371C
:101CC000BD465DF8047B7047001002400024F4001C
:101CD0003C59000880B582B000AF78607B68002B6B
:101CE00001D1012349E07B6893F83D30DBB2002B42
:101CF00006D17B68002283F83C20786800F041F828
:101D00007B68022283F83D207B681A687B68043375
:101D10001946104600F0F8F97B68012283F8482044
:101D20007B68012283F83E207B68012283F83F20F4
:101D30007B68012283F840207B68012283F84120E0
:101D40007B68012283F842207B68012283F84320CC
:101D50007B68012283F844207B68012283F84520B8
:101D60007B68012283F846207B68012283F84720A4
:101D70007B68012283F83D20002318460837BD46C2
:101D800080BD80B483B000AF786000BF0C37BD4623
:101D90005DF8047B7047000080B485B000AF7860C8
:101DA0007B6893F83D30DBB2012B01D001234FE07B
:101DB0007B68022283F83D207B681B68DA687B68B9
:101DC0001B6842F00102DA607B681B68234A934279
:101DD0001DD07B681B68B3F1804F18D07B681B68EF
:101DE0001F4A934213D07B681B681E4A93420ED051
:101DF0007B681B681C4A934209D07B681B681B4A9E
:101E0000934204D07B681B68194A934215D17B68C2
:101E10001B689A68174B1340FB60FB68062B15D0B4
:101E2000FB68B3F5803F11D07B681B681A687B683C
:101E30001B6842F001021A6008E07B681B681A68A0
:101E40007B681B6842F001021A6000E000BF0023BB
:101E500018461437BD465DF8047B7047002C0140DE
:101E60000004004000080040000C00400034014025
:101E7000004001400700010080B582B000AF7860EB
:101E80007B681B681B6903F00203022B22D17B686D
:101E90001B68DB6803F00203022B1BD17B681B6805
:101EA0006FF002021A617B6801221A777B681B6857
:101EB0009B6903F00303002B03D0786800F005F959
:101EC00005E0786800F0F7F8786800F008F97B68BA
:101ED00000221A777B681B681B6903F00403042B3C
:101EE00022D17B681B68DB6803F00403042B1BD141
:101EF0007B681B686FF004021A617B6802221A7704
:101F00007B681B689B6903F44073002B03D07868DF
:101F100000F0DBF805E0786800F0CDF8786800F0B4
:101F2000DEF87B6800221A777B681B681B6903F068
:101F30000803082B22D17B681B68DB6803F00803C9
:101F4000082B1BD17B681B686FF008021A617B6845
:101F500004221A777B681B68DB6903F00303002BFC
:101F600003D0786800F0B1F805E0786800F0A3F8D5
:101F7000786800F0B4F87B6800221A777B681B68E9
:101F80001B6903F01003102B22D17B681B68DB68F0
:101F900003F01003102B1BD17B681B686FF010023D
:101FA0001A617B6808221A777B681B68DB6903F477
:101FB0004073002B03D0786800F087F805E078685C
:101FC00000F079F8786800F08AF87B6800221A77C8
:101FD0007B681B681B6903F00103012B0ED17B6832
:101FE0001B68DB6803F00103012B07D17B681B68CA
:101FF0006FF001021A617868FEF786FA7B681B6849
:102000001B6903F08003802B0ED17B681B68DB68A3
:1020100003F08003802B07D17B681B686FF0800280
:102020001A61786800F014F97B681B681B6903F477
:102030008073B3F5807F0ED17B681B68DB6803F08B
:102040008003802B07D17B681B686FF480721A6154
:10205000786800F007F97B681B681B6903F0400390
:10206000402B0ED17B681B68DB6803F04003402BDC
:1020700007D17B681B686FF040021A61786800F036
:1020800038F87B681B681B6903F02003202B0ED1F6
:102090007B681B68DB6803F02003202B07D17B687B
:1020A0001B686FF020021A61786800F0C7F800BF63
:1020B0000837BD4680BD80B483B000AF786000BFF4
:1020C0000C37BD465DF8047B704780B483B000AF29
:1020D000786000BF0C37BD465DF8047B704780B464
:1020E00083B000AF786000BF0C37BD465DF8047B5D
:1020F000704780B483B000AF786000BF0C37BD4636
:102100005DF8047B7047000080B485B000AF786054
:1021100039607B681B68FB607B68404A934213D040
:102120007B68B3F1804F0FD07B683D4A93420BD060
:102130007B683C4A934207D07B683B4A934203D07A
:102140007B683A4A934208D1FB6823F07003FB6036
:102150003B685B68FA681343FB607B682F4A9342D5
:102160001FD07B68B3F1804F1BD07B682C4A934211
:1021700017D07B682B4A934213D07B682A4A93423C
:102180000FD07B68294A93420BD07B68284A934240
:1021900007D07B68274A934203D07B68264A934244
:1021A00008D1FB6823F44073FB603B68DB68FA6886
:1021B0001343FB60FB6823F080023B685B691343B9
:1021C000FB607B68FA681A603B689A687B68DA6231
:1021D0003B681A687B689A627B68104A93420FD00A
:1021E0007B68124A93420BD07B68114A934207D016
:1021F0007B68104A934203D07B680F4A934203D115
:102200003B681A697B681A637B6801225A6100BFC8
:102210001437BD465DF8047B704700BF002C0140B9
:102220000004004000080040000C00400034014061
:1022300000400140004401400048014080B483B0A8
:1022400000AF786000BF0C37BD465DF8047B704777
:1022500080B483B000AF786000BF0C37BD465DF836
:10226000047B704780B483B000AF786000BF0C3748
:10227000BD465DF8047B704780B500AF054B1B6819
:1022800001F0D4FE0346012B01D000F067FB00BF34
:1022900080BD00BF10E000E080B483B000AFEFF37A
:1022A00005833B603B68002B03D06FF005037B6028
:1022B0000CE00A4B1B68002B05D1084B01221A6069
:1022C00000237B6002E04FF0FF337B607B681846A1
:1022D0000C37BD465DF8047B704700BF98000020B6
:1022E00080B485B000AFF860B9607A60FB68074AD7
:1022F0001A60BB68064A1A607B684FF400721A6065
:1023000000BF1437BD465DF8047B70479C00002079
:10231000F800002080B485B000AFF860B9607A6042
:10232000FB68074A1A60BB68064A1A607B684FF46C
:1023300080621A6000BF1437BD465DF8047B7047A9
:10234000F80800205409002080B586B000AF7860FE
:102350000023FB6001F0E2FA4F4B1B68002B01D118
:1023600000F0F8F84D4B1A687B681340002B40F0E2
:1023700083807B68002B15D008227B6813447B6028
:102380007B6803F00703002B0CD07B6823F0070366
:1023900008337B607B6803F00703002B02D000F05A
:1023A000EBFBFEE77B68002B66D03D4B1B687A6831
:1023B0009A4261D83B4B3B613A4B1B687B6104E01E
:1023C0007B693B617B691B687B617B695B687A68C1
:1023D0009A4203D97B691B68002BF1D12E4B1B68F5
:1023E0007A699A4248D03B691B6808221344FB6013
:1023F0007B691A683B691A607B695A687B68D21AE4
:1024000008235B009A4217D97A697B681344BB6042
:10241000BB6803F00703002B02D000F0ADFBFEE722
:102420007B695A687B68D21ABB685A607B697A6894
:102430005A60B86800F0F0F8194B1A687B695B685D
:10244000D31A174A1360164B1A68174B1B689A4227
:1024500003D2134B1B68144A13607B695A680F4BF5
:102460001B681A437B695A607B6900221A600F4B14
:102470001B6801330D4A136001F05EFAFB6803F03C
:102480000703002B02D000F077FBFEE7FB6818463D
:102490001837BD4680BD00BF143900202839002000
:1024A000183900200C3900201C3900202039002068
:1024B00080B584B000AF78607B68FB607B68002BE0
:1024C0003DD008235B42FA681344FB60FB68BB60A5
:1024D000BB685A681C4B1B681340002B02D100F0EC
:1024E0004BFBFEE7BB681B68002B02D000F044FBEF
:1024F000FEE7BB685A68144B1B681340002B1ED0C4
:10250000BB681B68002B1AD1BB685A680E4B1B684E
:10251000DB431A40BB685A6001F000FABB685A6896
:102520000A4B1B681344094A1360B86800F074F83A
:10253000074B1B680133064A136001F0FDF900BF29
:102540001037BD4680BD00BF283900201839002053
:102550002439002080B485B000AF41F6B873BB6069
:10256000274BFB60FB6803F00703002B0CD0FB68D4
:102570000733FB60FB6823F00703FB60BA68FB6866
:10258000D31A1F4A1344BB60FB687B601D4A7B68FB
:1025900013601C4B00225A607B68BA681344FB60CE
:1025A0000822FB689B1AFB60FB6823F00703FB60B3
:1025B000FB68154A1360144B1B6800225A60124BCB
:1025C0001B6800221A607B683B603B68FA68D21A7D
:1025D0003B685A600C4B1A683B681A603B685B6842
:1025E0000A4A13603B685B68094A1360094B4FF065
:1025F00000421A6000BF1437BD465DF8047B704787
:10260000541900200C390020143900201C390020F6
:10261000183900202839002080B485B000AF7860D8
:10262000284BFB6002E0FB681B68FB60FB681B68D3
:102630007A689A42F7D8FB68BB60FB685B68BA6847
:1026400013447A689A4208D1FB685A687B685B68D1
:102650001A44FB685A60FB687B607B68BB607B68E0
:102660005B68BA681A44FB681B689A4218D1FB6819
:102670001A68154B1B689A420DD07B685A68FB6834
:102680001B685B681A447B685A60FB681B681A68A1
:102690007B681A6008E00C4B1A687B681A6003E0DC
:1026A000FB681A687B681A60FA687B689A4202D0F5
:1026B000FB687A681A6000BF1437BD465DF8047B7A
:1026C000704700BF0C3900201439002080B483B05B
:1026D00000AF78607B6803F108027B685A607B6812
:1026E0004FF0FF329A607B6803F108027B68DA6082
:1026F0007B6803F108027B681A617B6800221A601C
:1027000000BF0C37BD465DF8047B704780B483B0D2
:1027100000AF78607B6800221A6100BF0C37BD46AD
:102720005DF8047B704780B485B000AF7860396095
:102730007B685B68FB603B68FA685A60FB689A6874
:102740003B689A60FB689B683A685A60FB683A6825
:102750009A603B687A681A617B681B685A1C7B68C0
:102760001A6000BF1437BD465DF8047B704780B423
:1027700085B000AF786039603B681B68BB60BB68A0
:10278000B3F1FF3F03D17B681B69FB600CE07B6802
:102790000833FB6002E0FB685B68FB60FB685B681A
:1027A0001B68BA689A42F6D2FB685A683B685A605E
:1027B0003B685B683A689A603B68FA689A60FB68B5
:1027C0003A685A603B687A681A617B681B685A1CD1
:1027D0007B681A6000BF1437BD465DF8047B704704
:1027E00080B485B000AF78607B681B69FB607B6854
:1027F0005B687A6892689A607B689B687A685268BE
:102800005A60FB685B687A689A4203D17B689A6871
:10281000FB685A607B6800221A61FB681B685A1EBD
:10282000FB681A60FB681B6818461437BD465DF8E4
:10283000047B704780B400AF0B4B00221A600B4B37
:1028400000221A600A4B1B680A4AA2FB03239B0959
:10285000094A013B1360044B07221A6000BFBD46C2
:102860005DF8047B704700BF10E000E018E000E076
:1028700000000020D34D621014E000E080B582B06B
:1028800000AF00237B60094B1B68B3F1FF3F02D010
:1028900000F072F9FEE700F06FF900BF7B68002BD3
:1028A000FCD000BF00BF0837BD4680BD0C00002033
:1028B00080B400AF084B1B68074A43F470031360F1
:1028C000064B1B68054A43F04043136000BFBD46FA
:1028D0005DF8047B704700BF88ED00E034EF00E056
:1028E00080B400AF064B4FF080521A60BFF34F8F99
:1028F000BFF36F8F00BFBD465DF8047B704700BF1C
:1029000004ED00E080B500AF00F036F9054B1B6820
:102910000133044A1360BFF34F8FBFF36F8F00BFC3
:1029200080BD00BF0C00002080B500AF0A4B1B68C3
:10293000002B02D100F020F9FEE7074B1B68013B9A
:10294000054A1360044B1B68002B02D1002000F0E5
:1029500020F900BF80BD00BF0C00002080B582B010
:1029600000AF00F009F9786001F084F80346002B0D
:1029700003D0054B4FF080521A60786800F009F9D7
:1029800000BF0837BD4680BD04ED00E080B584B0CF
:1029900000AF78607B689B69FB60FB68023B1B783B
:1029A000FB72FB7A022B04D1FFF782FF00F0B8F82C
:1029B00002E000F0E1F8FEE700BF1037BD4680BD41
:1029C00080B485B000AFF860B9607A603B60FB68A6
:1029D000043BFB60FB684FF080721A60FB68043BAD
:1029E000FB607A68FB681A60FB68043BFB60384A4E
:1029F000FB681A60FB68043BFB60FB684FF0123217
:102A00001A60FB68043BFB60FB684FF003321A60FE
:102A1000FB68043BFB60FB684FF002321A60FB6806
:102A2000043BFB60FB684FF001321A60FB68043B1B
:102A3000FB603A68FB681A60FB68043BFB60FB685C
:102A40004FF011321A60FB68043BFB60FB684FF0EB
:102A500010321A60FB68043BFB60FB684FF00932E0
:102A60001A60FB68043BFB60FB684FF008321A6099
:102A7000FB68043BFB60FB684FF007321A60FB68A1
:102A8000043BFB60FB684FF006321A60FB68043BB6
:102A9000FB60FB684FF005321A60FB68043BFB608B
:102AA000FB684FF004321A60FB68043BFB60FB6874
:102AB0006FF043021A60FB68043BFB60BA68FB6876
:102AC0001A60FB6818461437BD465DF8047B7047F2
:102AD0007D28000880B500AF0C4B1B680B4A43F4FF
:102AE0007F031360094B1B68084A43F07F43136060
:102AF000FFF7A0FE064B00221A6000F029F801F053
:102B00006BF8FFF7BBFE0023184680BD20ED00E008
:102B10000C00002000000000000000000000000089
:102B2000074A1168086806C881F30B88022181F3FF
:102B30001488203080F30988BFF36F8F104700BFDF
:102B40002C39002000BF00BF000000000000000082
:102B500007480068006880F3088862B661B6BFF372
:102B60004F8FBFF36F8F02DF00BF00BFAFF3008056
:102B700008ED00E000BF00BFEFF311804FF0A001AF
:102B800081F31188BFF34F8FBFF36F8F704700BF82
:102B9000184680F31188BFF34F8FBFF36F8F7047D4
:102BA00000BF000000000000000000000000000066
:102BB000EFF309801EF0100F08BF20ED108AEFF32D
:102BC0000B82734620E9FC0F114A116808604FF030
:102BD000A00080F31188BFF34F8FBFF36F8F00F019
:102BE000FBFF4FF0000080F31188094A1168086864
:102BF000B0E8FC0F13F0100F08BFB0EC108A82F39E
:102C00000B8880F309881847AFF30080AFF300808A
:102C10002C39002000BF00BF0000000000000000B1
:102C20001EF0040F0CBFEFF30880EFF30980044996
:102C3000084700BFAFF30080AFF30080AFF3008020
:102C40008D29000800BF00BF80B584B000AF786058
:102C500039607B68FB60FB68002B02D1FFF78CFFBB
:102C6000FEE7FFF74FFEFB681A68FB68DB6BF9684D
:102C7000096C01FB03F31A44FB689A60FB680022AD
:102C80009A63FB681A68FB685A60FB681A68FB68FD
:102C9000DB6B013BF968096C01FB03F31A44FB6829
:102CA000DA60FB68FF2283F84420FB68FF2283F888
:102CB00045203B68002B0ED1FB681B69002B14D00C
:102CC000FB681033184601F01BF80346002B0CD0AC
:102CD000FFF706FE09E0FB6810331846FFF7F6FC25
:102CE000FB6824331846FFF7F1FCFFF71DFE0123B4
:102CF00018461037BD4680BD80B588B002AFF86079
:102D0000B9607A603B60FB68002B02D1FFF734FFAB
:102D1000FEE73B68002B02D1FFF72EFFFEE77B6842
:102D2000002B02D0BB68002B01D0012300E0002360
:102D3000002B02D1FFF720FFFEE77B68002B02D1BA
:102D4000BB68002B01D1012300E00023002B02D13E
:102D5000FFF712FFFEE750233B613B69502B02D087
:102D6000FFF70AFFFEE73B693B687B617B69002B4D
:102D70000DD07B69012283F8462097F820207B69DB
:102D8000009313467A68B968F86800F037F87B69F1
:102D900018461837BD4680BD80B58AB002AFF860CE
:102DA000B9601346FB71FB68002B02D1FFF7E4FE0C
:102DB000FEE7FB68BA6802FB03F3FB61FB69503373
:102DC0001846FFF7C1FAB861BB69002B11D0BB6987
:102DD0007B617B6950337B61BB69002283F84620AD
:102DE000FA79BB69009313467A69B968F86800F00C
:102DF00005F8BB6918462037BD4680BD80B584B054
:102E000000AFF860B9607A60FB70BB68002B03D13B
:102E1000BB69BA691A6002E0BB697A681A60BB696B
:102E2000FA68DA63BB69BA681A640121B869FFF706
:102E30000BFFBB69FA7883F84C2000BF1037BD4602
:102E400080BD80B58AB000AFF860B9607A603B6041
:102E500000237B62FB683B623B6A002B02D1FFF7D9
:102E60008BFEFEE7BB68002B03D13B6A1B6C002B7B
:102E700001D1012300E00023002B02D1FFF77CFEEB
:102E8000FEE73B68022B03D13B6ADB6B012B01D1D0
:102E9000012300E00023002B02D1FFF76DFEFEE7C7
:102EA00001F0C4F80346002B02D17B68002B01D14E
:102EB000012300E00023002B02D1FFF75DFEFEE7B7
:102EC000FFF720FD3B6A9A6B3B6ADB6B9A4202D3A9
:102ED0003B68022B1DD13A68B968386A00F0BAF92C
:102EE000F8613B6A5B6A002B0AD03B6A24331846C0
:102EF00000F006FF0346002B07D0FFF7F1FC04E0CB
:102F0000FB69002B01D0FFF7EBFCFFF70DFD012360
:102F10005CE07B68002B03D1FFF706FD002355E042
:102F20007B6A002B06D107F11403184600F044FF1A
:102F300001237B62FFF7F8FC00F0F0FCFFF7E2FCF6
:102F40003B6A93F844305BB2B3F1FF3F03D13B6A75
:102F5000002283F844203B6A93F845305BB2B3F11A
:102F6000FF3F03D13B6A002283F84520FFF7DCFCDA
:102F70003A1D07F114031146184600F033FF0346CB
:102F8000002B1DD1386A00F05DFA0346002B11D0EA
:102F90003B6A10337A681146184600F071FE386AB1
:102FA00000F0E8F900F0C8FC0346002B88D1FFF7D9
:102FB00097FC85E7386A00F0DDF900F0BDFC7FE79B
:102FC000386A00F0D7F900F0B7FC0023184628371C
:102FD000BD4680BD80B58AB000AFF860B9607A6048
:102FE0003B60FB683B623B6A002B02D1FFF7C4FDEC
:102FF000FEE7BB68002B03D13B6A1B6C002B01D1A1
:10300000012300E00023002B02D1FFF7B5FDFEE70E
:103010003B68022B03D13B6ADB6B012B01D10123FF
:1030200000E00023002B02D1FFF7A6FDFEE7FFF72B
:10303000A3FDF8613B6A9A6B3B6ADB6B9A4202D351
:103040003B68022B2DD13B6A93F84530FB763B6AF7
:103050009B6B7B613A68B968386A00F0FBF897F9B6
:103060001B30B3F1FF3F12D13B6A5B6A002B15D0D6
:103070003B6A2433184600F043FE0346002B0DD074
:103080007B68002B0AD07B6801221A6006E0FB7E79
:103090000133DBB25AB23B6A83F8452001237B62DD
:1030A00001E000237B62F869FFF773FD7B6A184635
:1030B0002837BD4680BD80B58AB000AFF860B960E2
:1030C0007A6000237B62FB683B623B6A002B02D183
:1030D000FFF752FDFEE7BB68002B03D13B6A1B6C78
:1030E000002B01D1012300E00023002B02D1FFF7C8
:1030F00043FDFEE700F09AFF0346002B02D17B68F8
:10310000002B01D1012300E00023002B02D1FFF7A7
:1031100033FDFEE7FFF7F6FB3B6A9B6BFB61FB6948
:10312000002B19D0B968386A00F0FEF8FB695A1E06
:103130003B6A9A633B6A1B69002B09D03B6A1033D8
:10314000184600F0DDFD0346002B01D0FFF7C8FB59
:10315000FFF7EAFB012363E07B68002B03D1FFF755
:10316000E3FB00235CE07B6A002B06D107F114032C
:10317000184600F021FE01237B62FFF7D5FB00F02B
:10318000CDFBFFF7BFFB3B6A93F844305BB2B3F172
:10319000FF3F03D13B6A002283F844203B6A93F847
:1031A00045305BB2B3F1FF3F03D13B6A002283F8A5
:1031B0004520FFF7B9FB3A1D07F1140311461846E5
:1031C00000F010FE0346002B1DD1386A00F024F9F0
:1031D0000346002B11D03B6A24337A681146184607
:1031E00000F04EFD386A00F0C5F800F0A5FB03467C
:1031F000002B8FD1FFF774FB8CE7386A00F0BAF828
:1032000000F09AFB86E7386A00F0B4F800F094FB0F
:10321000386A00F001F90346002B3FF47BAF00232E
:1032200018462837BD4680BD80B584B000AF7860B1
:103230007B68002B02D1FFF79FFCFEE7FFF762FBE4
:103240007B689B6BFB60FFF76FFBFB6818461037D2
:10325000BD4680BD80B586B000AFF860B9607A60C9
:1032600000237B61FB689B6B3B61FB681B6C002B45
:103270000DD1FB681B68002B4DD1FB689B6818467D
:1032800000F0F2FE7861FB6800229A6043E07B6800
:10329000002B19D1FB685868FB681B6C1A46B9688B
:1032A00001F0CCFAFB685A68FB681B6C1A44FB6897
:1032B0005A60FB685A68FB689B689A422BD3FB688C
:1032C0001A68FB685A6026E0FB68D868FB681B6CCC
:1032D0001A46B96801F0B2FAFB68DA68FB681B6C41
:1032E0005B421A44FB68DA60FB68DA68FB681B68BB
:1032F0009A4207D2FB689A68FB681B6C5B421A44CF
:10330000FB68DA607B68022B05D13B69002B02D099
:103310003B69013B3B613B695A1CFB689A637B69D3
:1033200018461837BD4680BD80B582B000AF7860C2
:1033300039607B681B6C002B18D07B68DA687B686F
:103340001B6C1A447B68DA607B68DA687B689B6870
:103350009A4203D37B681A687B68DA607B68D96815
:103360007B681B6C1A46386801F068FA00BF0837A2
:10337000BD4680BD80B584B000AF7860FFF7C2FA6B
:103380007B6893F84530FB7311E07B685B6A002B28
:1033900012D07B682433184600F0B2FC0346002BA1
:1033A00001D000F071FDFB7B013BDBB2FB7397F9B1
:1033B0000F30002BE9DC00E000BF7B68FF2283F8C0
:1033C0004520FFF7B1FAFFF79DFA7B6893F8443088
:1033D000BB7311E07B681B69002B12D07B68103334
:1033E000184600F08DFC0346002B01D000F04CFD88
:1033F000BB7B013BDBB2BB7397F90E30002BE9DCE2
:1034000000E000BF7B68FF2283F84420FFF78CFABE
:1034100000BF1037BD4680BD80B584B000AF786076
:10342000FFF770FA7B689B6B002B02D10123FB60D6
:1034300001E00023FB60FFF777FAFB6818461037BE
:10344000BD4680BD80B584B000AF7860FFF75AFA02
:103450007B689A6B7B68DB6B9A4202D10123FB602D
:1034600001E00023FB60FFF75FFAFB6818461037A6
:10347000BD4680BD80B485B000AF78603960002360
:10348000FB6014E00F4AFB6852F83330002B0BD17D
:103490000C49FB683A6841F833200A4AFB68DB00B4
:1034A00013447A685A6006E0FB680133FB60FB68EE
:1034B000072BE7D900BF00BF1437BD465DF8047B7A
:1034C000704700BFBC3F002080B586B000AFF860F9
:1034D000B9607A60FB687B61FFF714FA7B6993F847
:1034E00044305BB2B3F1FF3F03D17B69002283F824
:1034F00044207B6993F845305BB2B3F1FF3F03D1C1
:103500007B69002283F84520FFF70EFA7B699B6BED
:10351000002B06D17B6924337A68B968184600F01D
:10352000CBFB7869FFF726FF00BF1837BD4680BD8B
:1035300080B58CB004AFF860B9607A603B60FB6A1C
:10354000002B02D1FFF718FBFEE73B6B002B02D1EB
:10355000FFF712FBFEE75C237B617B695C2B02D0EB
:10356000FFF70AFBFEE77B693B6B002B1ED0FB6A73
:10357000002B1BD03B6BFB61FB69FA6A1A63FB698A
:10358000022283F8592000230393FB69029307F179
:1035900018030193BB6A00933B687A68B968F868BE
:1035A00000F050F8F86900F0D7F801E00023BB61A3
:1035B000BB6918462037BD4680BD80B58CB004AFCE
:1035C000F860B9603B601346FB80FB889B0018469F
:1035D000FEF7BAFE78617B69002B0ED05C20FEF707
:1035E000B3FEF861FB69002B03D0FB697A691A63AB
:1035F00005E07869FEF75CFF01E00023FB61FB69F1
:10360000002B17D0FB69002283F85920FA88002389
:103610000393FB690293FB6A0193BB6A00933B68C7
:10362000B968F86800F00EF8F86900F095F8012321
:10363000BB6102E04FF0FF33BB61BB691846203726
:10364000BD4680BD80B586B000AFF860B9607A60D5
:103650003B60BB6A186B7B689B001A46A52101F092
:10366000FAF8BB6A1A6B7B6803F18043013B9B004D
:1036700013443B613B6923F007033B613B6903F063
:103680000703002B02D0FFF777FAFEE7BB68002B99
:103690001FD000237B6112E0BA687B69134419785C
:1036A000BA6A7B69134434330A461A70BA687B6974
:1036B00013441B78002B06D07B6901337B617B6947
:1036C0000F2BE9D900E000BFBB6A002283F843203A
:1036D00003E0BB6A002283F834203B6A372B01D910
:1036E00037233B62BB6A3A6ADA62BB6A3A6ADA64D7
:1036F000BB6A00221A65BB6A04331846FFF706F856
:10370000BB6A18331846FFF701F8BB6ABA6A1A6138
:103710003B6AC3F13802BB6A9A61BB6ABA6A5A62F1
:10372000BB6A00225A65BB6A002283F85820BB6A34
:10373000196B3B68FA683869FFF742F90246BB6AC1
:103740001A607B6A002B02D07B6ABA6A1A6000BFDB
:103750001837BD4680BD000080B582B000AF7860EC
:10376000FFF7D0F82A4B1B680133294A1360294B15
:103770001B68002B09D1274A7B681360244B1B6808
:10378000012B10D100F09CFB0DE0234B1B68002B9C
:1037900009D1204B1B68DA6A7B68DB6A9A4202D83F
:1037A0001C4A7B6813601D4B1B6801331B4A136066
:1037B0001A4B1A687B685A647B68DA6A184B1B6874
:1037C0009A4203D97B68DB6A154A13607B68DA6A20
:1037D00013469B0013449B00124A1A447B6804332F
:1037E00019461046FEF79FFFFFF79EF80A4B1B682D
:1037F000002B08D0074B1B68DA6A7B68DB6A9A42A9
:1038000001D2FFF76DF800BF0837BD4680BD00BF8D
:10381000003E00202C3900200C3E00201C3E0020E1
:10382000083E00203039002080B584B000AF7860B9
:103830000023FB607B68002B0FD00C4B1B68002B18
:1038400002D0FFF799F9FEE700F068F800217868E8
:1038500000F068FC00F070F8F860FB68002B01D104
:10386000FFF73EF800BF1037BD4680BD283E002060
:1038700080B588B004AF0023BB6000237B603A466C
:10388000391D07F108031846FEF72AFD39687B68E1
:10389000BA68029201930023009300230A46194953
:1038A0001948FFF745FE0346184A1360174B1B687B
:1038B000002B02D00123FB6001E00023FB60FB68CA
:1038C000012B02D100F082FCF860FB68012B0ED1C5
:1038D000FFF752F90E4B4FF0FF321A600D4B0122E9
:1038E0001A600D4B00221A60FFF7F4F806E0FB683F
:1038F000B3F1FF3F02D1FFF73FF9FEE700BF1037FA
:10390000BD4680BD08590008A13E0008243E0020A5
:10391000203E00200C3E0020043E002080B400AF7A
:10392000044B1B680133034A136000BFBD465DF8BA
:10393000047B7047283E002080B584B000AF002390
:10394000FB600023BB603B4B1B68002B02D1FFF7E1
:1039500013F9FEE7FEF7D6FF364B1B68013B354AED
:103960001360344B1B68002B5CD1334B1B68002B5E
:1039700058D02FE0314BDB68DB68FB60FB68183305
:103980001846FEF72DFFFB6804331846FEF728FFA4
:10399000FB68DA6A2A4B1B689A4203D9FB68DB6A28
:1039A000274A1360FB68DA6A13469B0013449B00A6
:1039B000244A1A44FB68043319461046FEF7B3FE46
:1039C000FB68DA6A204B1B68DB6A9A4202D31F4B02
:1039D00001221A60194B1B68002BCBD1FB68002B0E
:1039E00001D000F003FB1A4B1B687B607B68002B47
:1039F00010D000F03FF80346002B02D0134B0122F9
:103A00001A607B68013B7B607B68002BF1D1104B17
:103A100000221A600D4B1B68002B03D00123BB60F2
:103A2000FEF75EFFFEF780FFBB6818461037BD4605
:103A300080BD00BF283E0020003E0020C03D002089
:103A4000083E0020303900202C390020143E002090
:103A5000103E002080B483B000AF054B1B687B6034
:103A60007B6818460C37BD465DF8047B704700BF85
:103A7000043E002080B586B000AF00237B614B4B35
:103A80001B68002B40F08780494B1B6801333B616A
:103A9000474A3B6913603B69002B18D1454B1B68B3
:103AA0001B68002B02D0FFF767F8FEE7414B1B684D
:103AB000FB60414B1B683F4A13603F4AFB68136041
:103AC0003E4B1B6801333D4A136000F08FFA3C4BBC
:103AD0001B683A699A4249D3364B1B681B68002B16
:103AE00004D1374B4FF0FF321A603FE0314B1B6877
:103AF000DB68DB68BB60BB685B687B603A697B68DE
:103B00009A4203D22E4A7B6813602FE0BB680433CD
:103B10001846FEF765FEBB689B6A002B04D0BB68A5
:103B200018331846FEF75CFEBB68DA6A254B1B6843
:103B30009A4203D9BB68DB6A224A1360BB68DA6A1F
:103B400013469B0013449B001F4A1A44BB6804336E
:103B500019461046FEF7E7FDBB68DA6A1B4B1B6887
:103B6000DB6A9A42B8D301237B61B5E7174B1B6828
:103B7000DA6A154913469B0013449B000B441B68EB
:103B8000012B01D901237B61114B1B68002B07D04E
:103B900001237B6104E00F4B1B6801330D4A136066
:103BA0007B6918461837BD4680BD00BF283E0020FF
:103BB000043E0020B83D0020BC3D0020183E0020FF
:103BC000203E0020083E0020303900202C39002003
:103BD000143E0020103E002080B582B000AF234B81
:103BE0001B68002B03D0224B01221A6039E0204BC6
:103BF00000221A601F4B1B687B6008E07B68002B6B
:103C000002D1FEF7B9FFFEE77B68013B7B601A49F2
:103C10007A6813469B0013449B000B441B68002BDF
:103C2000ECD07A6813469B0013449B00124A13445D
:103C30003B603B685B685A683B685A603B685A68FF
:103C40003B6808339A4204D13B685B685A683B681A
:103C50005A603B685B68DB68084A1360054A7B680A
:103C6000136000BF0837BD4680BD00BF283E00205E
:103C7000143E0020083E0020303900202C3900205E
:103C800080B582B000AF786039607B68002B02D1CC
:103C9000FEF772FFFEE7074B1B681833194678687A
:103CA000FEF765FD0121386800F03CFA00BF0837D7
:103CB000BD4680BD2C39002080B584B000AFF860CF
:103CC000B9607A60FB68002B02D1FEF755FFFEE772
:103CD0000A4B1B6818331946F868FEF724FD7B6809
:103CE000002B02D04FF0FF33BB607968B86800F05A
:103CF00019FA00BF1037BD4680BD00BF2C39002027
:103D000080B584B000AF78607B68DB68DB68BB603F
:103D1000BB68002B02D1FEF72FFFFEE7BB6818330C
:103D20001846FEF75DFD1E4B1B68002B1DD1BB68BE
:103D300004331846FEF754FDBB68DA6A194B1B685A
:103D40009A4203D9BB68DB6A164A1360BB68DA6A19
:103D500013469B0013449B00134A1A44BB68043368
:103D600019461046FEF7DFFC05E0BB68183319461C
:103D70000E48FEF7D8FCBB68DA6A0D4B1B68DB6A9D
:103D80009A4205D90123FB600A4B01221A6001E027
:103D90000023FB60FB6818461037BD4680BD00BF9E
:103DA000283E0020083E002030390020C03D002081
:103DB0002C390020143E002080B483B000AF78601E
:103DC000064B1A687B681A60054B1A687B685A6054
:103DD00000BF0C37BD465DF8047B7047183E0020DD
:103DE000043E002080B586B000AF786039607B6803
:103DF000002B02D1FEF7C0FEFEE73B68002B02D18C
:103E0000FEF7BAFEFEE7FEF77DFD1D4B1B683B612A
:103E10007B685B683A69D31AFB603B681B68B3F147
:103E2000FF3F02D100237B6123E07B681A68154BBA
:103E30001B689A4207D07B685B683A699A4202D352
:103E400001237B6115E03B681B68FA689A420BD23C
:103E50003B681A68FB68D21A3B681A607868FFF7FB
:103E6000ABFF00237B6104E03B6800221A60012362
:103E70007B61FEF759FD7B6918461837BD4680BD4A
:103E8000043E0020183E002080B400AF034B012206
:103E90001A6000BFBD465DF8047B7047143E0020E9
:103EA00080B582B000AF786000F04AF8034B1B6821
:103EB000012BF9D9FEF714FDF6E700BF30390020D9
:103EC00080B582B000AF00237B600CE07A681346B7
:103ED0009B0013449B00124A13441846FEF7F6FB5E
:103EE0007B6801337B607B68372BEFD90D48FEF789
:103EF000EDFB0D48FEF7EAFB0C48FEF7E7FB0C482C
:103F0000FEF7E4FB0B48FEF7E1FB0B4B054A1A609A
:103F10000A4B054A1A6000BF0837BD4680BD00BF86
:103F200030390020903D0020A43D0020C03D0020FD
:103F3000D43D0020EC3D0020B83D0020BC3D0020D9
:103F400080B582B000AF19E0FEF7DCFC104BDB68F7
:103F5000DB687B607B6804331846FEF741FC0D4B41
:103F60001B68013B0B4A13600B4B1B68013B0A4A61
:103F70001360FEF7D9FC786800F010F8064B1B6858
:103F8000002BE1D100BF00BF0837BD4680BD00BF98
:103F9000D43D0020003E0020E83D002080B582B0E6
:103FA00000AF78607B6893F85930002B08D17B68AC
:103FB0001B6B1846FEF77CFA7868FEF779FA10E07A
:103FC0007B6893F85930012B03D17868FEF770FABB
:103FD00007E07B6893F85930022B02D0FEF7CCFD46
:103FE000FEE700BF0837BD4680BD000080B483B047
:103FF00000AF0C4B1B681B68002B04D10A4B4FF021
:10400000FF321A6008E0074B1B68DB68DB687B60E7
:104010007B685B68044A136000BF0C37BD465DF8DF
:10402000047B7047B83D0020203E002080B483B060
:1040300000AF0B4B1B68002B02D101237B6008E013
:10404000084B1B68002B02D102237B6001E0002398
:104050007B607B6818460C37BD465DF8047B704773
:104060000C3E0020283E002080B584B000AF786070
:104070007B68BB600023FB607B68002B46D0264B2F
:104080001B68BA689A4202D0FEF776FDFEE7BB686D
:104090001B6D002B02D1FEF76FFDFEE7BB681B6DA9
:1040A0005A1EBB681A65BB68DA6ABB68DB6C9A4249
:1040B0002CD0BB681B6D002B28D1BB68043318467D
:1040C000FEF78EFBBB68DA6CBB68DA62BB68DB6A42
:1040D000C3F13802BB689A61BB68DA6A0F4B1B6890
:1040E0009A4203D9BB68DB6A0C4A1360BB68DA6A80
:1040F00013469B0013449B00094A1A44BB680433CF
:1041000019461046FEF70FFB0123FB60FB681846BB
:104110001037BD4680BD00BF2C390020083E00206E
:104120003039002080B584B000AF78603960214B11
:104130001B68FB60204B1B6804331846FEF750FBDE
:104140007B68B3F1FF3F0AD13B68002B07D01A4BC5
:104150001B68043319461948FEF7E5FA26E0FA68A9
:104160007B681344BB60144B1B68BA685A60BA681A
:10417000FB689A4209D2124B1A680F4B1B68043332
:1041800019461046FEF7F3FA10E00E4B1A680A4B78
:104190001B68043319461046FEF7E9FA0A4B1B6800
:1041A000BA689A4202D2084ABB68136000BF10374F
:1041B000BD4680BD043E00202C390020EC3D00208F
:1041C000BC3D0020B83D0020203E002080B588B0D6
:1041D00004AF0023FB6000F0C7FA184B1B68002BEC
:1041E00020D00023BB6000237B603A46391D07F1D5
:1041F00008031846FEF78EF839687B68BA680292A1
:1042000001930223009300230A460D490D48FFF74E
:104210008FF903460C4A13600B4B1B68002B01D02F
:104220000123FB60FB68002B02D1FEF7A5FCFEE733
:10423000FB6818461037BD4680BD00BF5C3E0020BD
:104240001059000861430008603E002080B58AB024
:1042500000AFF860B9607A603B6000237B62FB6866
:10426000002B02D1FEF788FCFEE71A4B1B68002BDF
:104270002AD0BB687B617B68BB61FB68FB61BB6864
:10428000052B18DCFFF7D2FE0346022B09D1114B98
:10429000186807F1140100233A6BFEF7D2FD78622B
:1042A00012E00C4B186807F1140100230022FEF7FE
:1042B000C8FD786208E0074B186807F11401002375
:1042C0003A68FEF787FE78627B6A18462837BD4653
:1042D00080BD00BF5C3E002080B586B002AF786034
:1042E00039601E4B1B68DB68DB68FB60FB680433CE
:1042F0001846FEF775FAFB6893F8283003F00403BC
:10430000002B1AD0FB689A697B68D1187B683A68E1
:10431000F86800F0C1F80346002B17D00023009383
:1043200000237A680021F868FFF790FFB860BB6847
:10433000002B0BD1FEF720FCFEE7FB6893F828303A
:1043400023F00103DAB2FB6883F82820FB681B6ABC
:10435000F868984700BF1037BD4680BD543E002026
:1043600080B584B000AF786007F10803184600F00C
:104370004FF8F860BB681946F86800F003F800F0E1
:10438000CDF8F1E780B584B000AF78603960FFF711
:10439000C5FA07F10803184600F05EF8F860BB683C
:1043A000002B2AD13B68002B0AD17A68FB689A421D
:1043B00006D8FFF7C1FAF9687868FFF78DFF1EE0AD
:1043C0003B68002B08D0104B1B681B68002B01D1E9
:1043D000012300E000233B600C4B18687A68FB68FF
:1043E000D31A3A681946FFF76FF8FFF7A5FA0346A4
:1043F000002B04D1FEF774FA01E0FFF79DFA00BF2D
:104400001037BD4680BD00BF583E00205C3E0020F6
:1044100080B485B000AF78600E4B1B681B68002B22
:1044200001D1012200E000227B681A607B681B68D2
:10443000002B05D1074B1B68DB681B68FB6001E0A4
:104440000023FB60FB6818461437BD465DF8047B0B
:10445000704700BF543E002080B584B000AF786044
:10446000FFF7F8FAF8600B4B1B68FA689A4205D21E
:1044700000F01EF97B6801221A6002E07B680022CE
:104480001A60044AFB681360FB6818461037BD4683
:1044900080BD00BF643E002080B586B000AFF860EC
:1044A000B9607A603B6000237B61FB68BA685A6040
:1044B000FB68FA681A61BA687B689A4212D87A680F
:1044C0003B68D21AFB689B699A4202D301237B6145
:1044D0001BE0104B1A68FB68043319461046FEF7C0
:1044E00046F912E07A683B689A4206D2BA683B689D
:1044F0009A4202D301237B6107E0074B1A68FB68ED
:10450000043319461046FEF732F97B69184618370E
:10451000BD4680BD583E0020543E002080B58CB082
:1045200002AFB2E0BB68002B11DA07F108030433D5
:104530007B627B6A002B02D1FEF71EFBFEE77B6AE3
:104540001B687A6A50687A6A926811469847BB6815
:10455000002BC0F299803B693B623B6A5B69002B90
:1045600004D03B6A04331846FEF73AF93B1D18465F
:10457000FFF772FFF861BB68092B00F2868001A289
:1045800052F823F0AD450008AD450008AD450008E0
:1045900011460008254600085F460008AD450008A2
:1045A000AD45000811460008254600083B6A93F80F
:1045B000283043F00103DAB23B6A83F82820FA6816
:1045C0003B6A9B69D118FB68FA69386AFFF764FF98
:1045D0000346002B59D03B6A1B6A386A98473B6AEE
:1045E00093F8283003F00403002B4ED0FA683B6A9E
:1045F0009B691A440023009300230021386AFFF7C7
:1046000025FEB861BB69002B3FD1FEF7B5FAFEE786
:104610003B6A93F8283023F00103DAB23B6A83F84F
:10462000282032E03B6A93F8283043F00103DAB2E5
:104630003B6A83F82820FA683B6A9A613B6A9B6967
:10464000002B02D1FEF798FAFEE73B6A9A69FB69F4
:10465000D118FB69FA69386AFFF71EFF15E03B6A5B
:1046600093F8283003F00203002B03D1386AFDF7DA
:104670001FFF0AE03B6A93F8283023F00103DAB207
:104680003B6A83F8282000E000BF084B1B6807F155
:10469000080100221846FEF70EFD0346002B7FF4AA
:1046A00041AF00BF00BF2837BD4680BD5C3E002043
:1046B00080B588B002AF40E0294B1B68DB681B68FF
:1046C0003B61274B1B68DB68DB68FB60FB680433DE
:1046D0001846FEF785F8FB681B6AF8689847FB6880
:1046E00093F8283003F00403002B26D0FB689B6965
:1046F0003A691344BB60BA683B699A420ED9FB68B9
:10470000BA685A60FB68FA681A61154B1A68FB6848
:10471000043319461046FEF72AF80EE000230093F2
:1047200000233A690021F868FFF790FD78607B6804
:10473000002B02D1FEF720FAFEE7094B1B681B682D
:10474000002BB9D1064B1B687B61064B1B68044AE2
:104750001360044A7B69136000BF1837BD4680BDF3
:10476000543E0020583E002080B582B002AFFEF7D4
:10477000C9F8154B1B68002B20D11448FDF7A6FF84
:104780001348FDF7A3FF134B104A1A60124B104A4F
:104790001A6000230093114B114A10210A20FEF7E2
:1047A000ABFA0346084A1360074B1B68002B05D081
:1047B000054B1B680B491846FEF75CFEFEF7B4F884
:1047C00000BFBD4680BD00BF5C3E00202C3E0020E7
:1047D000403E0020543E0020583E0020083F00206C
:1047E000683E002018590008014B1868704700BF48
:1047F0001000002070B50D4D00260D4C641BA41058
:10480000A64209D10B4D00260B4C01F007F8641BA2
:10481000A410A64205D170BD55F8043B0136984757
:10482000EEE755F8043B01369847F2E7185A0008BE
:10483000185A0008185A00081C5A00080A44431E57
:10484000914200D1704710B511F8014B914203F825
:10485000014FF9D110BD02440346934200D1704785
:1048600003F8011BF9E700000FB40A4B13B51C68ED
:1048700024B1A36913B9204600F05CFA05AB049A91
:10488000A1682046019300F02DFC02B0BDE8104065
:1048900004B070471000002070B50E46054618B1F0
:1048A00083690BB900F046FAAB69AC6813B92846C6
:1048B00000F040FA2C4B9C4220D16C68636EDB0701
:1048C00005D4A389980502D4A06D00F0D1FAA3897C
:1048D00019071DD52369DBB1013EA36816F8011F36
:1048E000013BA36039BB002B38DA22460A21284657
:1048F00000F048F8013011D00A2511E01B4B9C4212
:1049000001D1AC68DAE71A4B9C4208BFEC68D5E7E6
:104910002146284600F088F80028DDD04FF0FF350A
:10492000636EDA0705D4A3899B0502D4A06D00F05D
:10493000A0FA284670BD002B04DAA2699A4206DC70
:104940000A2904D023685A1C22601970C5E7224640
:10495000284600F017F80130BFD1DFE723680A25A9
:104960005A1C22601D70DBE7A0590008C0590008DE
:1049700080590008024B01461868FFF78DBF00BF41
:1049800010000020F8B50E461446054618B183699C
:104990000BB900F0CFF9214B9C422BD16C68A36975
:1049A000A360A3891A072FD523696BB32369F6B2D5
:1049B00020683746C01A6369834204DC21462846D2
:1049C00000F024F930BBA3680130013BA3602368E9
:1049D0005A1C22601E706369834204D0A389DB07DE
:1049E00006D50A2E04D12146284600F00FF988B9D1
:1049F0003846F8BD0A4B9C4201D1AC68CFE7094B61
:104A00009C4208BFEC68CAE72146284600F00CF833
:104A10000028CBD04FF0FF37EAE700BFA0590008CD
:104A2000C059000880590008324B70B51D68064611
:104A30000C4625B1AB6913B9284600F07BF92E4B23
:104A40009C420FD16C68A389B4F90C2019072CD4AF
:104A5000DD0611D40923336042F040034FF0FF30EC
:104A6000A3813EE0254B9C4201D1AC68EBE7244B8F
:104A70009C4208BFEC68E6E7580712D5616B41B16C
:104A800004F14403994202D0304600F057FA002363
:104A90006363A38923F02403A38100236360236954
:104AA0002360A38943F00803A38123694BB9A38939
:104AB00003F42073B3F5007F03D02146304600F0A5
:104AC000FDF9A089B4F90C2010F001030AD00023ED
:104AD000A36063695B42A361236943B910F080005E
:104AE000BAD170BD810758BF6369A360F4E70020A5
:104AF000F7E700BF10000020A0590008C0590008C7
:104B0000805900088A892DE9F041054610070C46B6
:104B100058D44B68002B05DC0B6C002B02DC00200A
:104B2000BDE8F081E66A002EF9D0002312F480522D
:104B30002F682B6032D0606DA3895A0705D5636852
:104B4000C01A636B0BB1236CC01A00230246E66ADD
:104B50002846216AB047431CA38906D129681D292C
:104B60002CD8294ACA40D60728D50022D904626029
:104B70002269226004D5421C01D12B6803B960650B
:104B8000616B2F600029CAD004F14403994202D01E
:104B9000284600F0D3F900206063C1E7216A0123B1
:104BA0002846B047411CC7D12B68002BC4D01D2B11
:104BB00001D0162B01D12F60B1E7A38943F0400348
:104BC000A381ADE70F69002FA9D093070E680F608E
:104BD0000CBF4B690023A6EB07088B60B8F1000FF0
:104BE0009DDD43463A46216A2846A66AB04700281A
:104BF00006DCA3894FF0FF3043F04003A3818FE729
:104C00000744A8EB0008E9E70100402038B50B692C
:104C100005460C4613B90025284638BD18B18369EE
:104C20000BB900F087F8144B9C421BD16C68B4F9A7
:104C30000C30002BEFD0626ED00704D4990502D45B
:104C4000A06D00F015F928462146FFF75BFF636E63
:104C50000546DA07E0D4A3899B05DDD4A06D00F0FA
:104C600008F9D9E7054B9C4201D1AC68DFE7044B5A
:104C70009C4208BFEC68DAE7A0590008C059000858
:104C800080590008002310B50446836081811946CD
:104C90004366C28108228361C0E90033C0E904335E
:104CA0005C30FFF7D8FD054B24626362044BA362BE
:104CB000044BE362044B236310BD00BF9156000810
:104CC000B3560008EB5600080F570008014900F0E2
:104CD000AFB800BF0D4C000870B54A1E68250E46DF
:104CE000554305F1740100F079F9044640B1002103
:104CF00005F16802C0E900160C30A060FFF7ABFDBB
:104D0000204670BD014800F0B3B800BF0440002049
:104D1000014800F0AEB800BF04400020014800F098
:104D2000A7B800BFFF3F0020014800F0A2B800BFB5
:104D3000FF3F002010B50446FFF7F0FFA3691BB149
:104D4000BDE81040FFF7F0BFC4E9123323652046E9
:104D5000124B134A1B68A262A34204BF0123A36142
:104D600000F020F86060204600F01CF8A0602046AB
:104D700000F018F800220421E0606068FFF782FF6D
:104D800001220921A068FFF77DFF02221221E068BD
:104D9000FFF778FF0123A361D2E700BF7C59000829
:104DA000CD4C0008F8B50746FFF7ACFF1E4B1E6858
:104DB000B36913B93046FFF7BDFF4836D6E9013471
:104DC000013B03D533680BB33668F7E7B4F90C50F1
:104DD000D5B9164B04F158006566E36000F047F85A
:104DE000FFF796FF0822294604F15C002560A561C3
:104DF000C4E90155C4E90455FFF72DFDC4E90D557B
:104E0000C4E912552046F8BD6834D9E70421384674
:104E1000FFF762FF044630600028D5D1FFF778FF26
:104E20000C233B60EEE700BF7C5900080100FFFF48
:104E30002DE9F8430646884600F148040027D4E9E6
:104E40000195B9F1010905D52468002CF7D1384640
:104E5000BDE8F883AB89012B07D9B5F90E300133D2
:104E600003D029463046C04707436835E9E7704715
:104E70007047704770B50E46B1F90E1096B01446E3
:104E800000291D4607DA00232B60B3891A0610D4C7
:104E90004FF480630EE06A4600F060FC0028F2DB0D
:104EA000019A02F47042A2F500535A425A412A6014
:104EB000EEE740230020236016B070BD8B8973B5E8
:104EC0009D0706460C4607D504F14703236023617E
:104ED0000123636102B070BD01AB6A46FFF7CAFFF0
:104EE00000990546304600F079F848B9B4F90C301D
:104EF0009A05EFD423F0030343F00203A381E3E711
:104F00000D4BB362A389206043F080032061A3812D
:104F1000009B6361019B5BB1B4F90E10304600F059
:104F20002FFC28B1A38923F0030343F00103A381DD
:104F3000A0890543A581CDE7CD4C000837B50029F0
:104F400047D051F8043C0C1F0190002BB8BFE41867
:104F500000F046FC204A01981368154633B9636097
:104F6000146003B0BDE8304000F040BCA3420BD950
:104F700021686218934202BF1A685B685218636026
:104F800008BF22602C60ECE71A465B680BB1A342B5
:104F9000FAD911685518A5420BD124682144541838
:104FA0001160A342DDD11C685B682144536011602D
:104FB000D7E702D90C230360D3E7256861198B4238
:104FC00002BF19685B684919636008BF21605460BB
:104FD000C7E703B030BD00BF583F0020F8B5CD1C77
:104FE000064625F0030508350C2D38BF0C25002D8D
:104FF00001DBA94203D90C2333600020F8BD00F087
:10500000EFFB21490A6814469CB9204F3B6823B93D
:105010002146304600F02CFB38602946304600F02F
:1050200027FB431C23D10C233046336000F0DEFB0A
:10503000E3E723685B1B17D40B2B03D923601C44C5
:10504000256004E06368A2420CBF0B6053603046E9
:1050500000F0CCFB04F10B00231D20F00700C21A66
:10506000CCD01B1AA350C9E722466468CCE7C41C05
:1050700024F00304A042E3D0211A304600F0F8FAED
:105080000130DDD1CFE700BF583F00205C3F00205A
:105090009368013B002B936010B408DA9469A34233
:1050A00001DB0A2903D15DF8044BFFF76BBC1368E1
:1050B000581C1060084619705DF8044B7047F8B52D
:1050C00006460F461446D518AC4201D1002007E031
:1050D0003A4614F8011B3046FFF7DAFF431CF3D1C0
:1050E000F8BD00002DE9F04F0D469DB014469846DE
:1050F000064618B183690BB9FFF71CFE894B9D4228
:105100001BD175686B6ED90705D4AB899A0502D49B
:10511000A86DFFF7ADFEAB891B0701D52B69EBB975
:1051200029463046FFF780FCC0B16B6EDC070ED518
:105130004FF0FF301DB0BDE8F08F7B4B9D4201D199
:10514000B568DFE7794B9D4208BFF568DAE7AB89C0
:105150009805EDD4A86DFFF78CFEE9E70023CDF8A4
:105160000C804FF00109DFF8C881099320238DF8E6
:10517000293030238DF82A3023469A4613F8012B24
:105180000AB1252AF9D1BAEB040B0BD05B462246B3
:1051900029463046FFF793FF013000F0AA80099AB4
:1051A0005A4409929AF80030002B00F0A2800023A4
:1051B0004FF0FF320AF1010A049307938DF8533040
:1051C0001A93CDE9052354460522594814F8011BCA
:1051D00000F0F8FA049AD8B9D10644BF20238DF81C
:1051E0005330130744BF2B238DF853309AF8003007
:1051F0002A2B15D0079A544600204FF00A0C21465E
:1052000011F8013B303B092B4ED9B0B1079214E0A5
:10521000A0EB0803A24609FA03F313430493D2E771
:10522000039B191D1B68002B0391BBBF5B4242F01F
:10523000020207930793B8BF049223782E2B0CD158
:1052400063782A2B35D1039B02341A1D1B68002B6F
:105250000392B8BF4FF0FF330593DFF8E4A00322B9
:105260002178504600F0AEFA40B14023A0EB0A008E
:10527000013403FA00F0049B0343049314F8011B68
:1052800006222C488DF8281000F09CFA00283FD008
:10529000294B1BBB039B073323F0070308330393FE
:1052A000099B3B44099367E70CFB02320C46012043
:1052B000A5E7002301344FF00A0C19460593204658
:1052C00010F8012B303A092A03D9002BC5D00591DB
:1052D000C3E70CFB012104460123F0E703AB2A4698
:1052E00004A930460093154B00E000BF0746781C28
:1052F000D6D16B6ED90705D4AB899A0502D4A86DB7
:10530000FFF7B7FDAB895B063FF512AF099811E7D0
:1053100003AB2A4604A930460093084B00F082F8FC
:10532000E4E700BFA0590008C059000880590008F0
:10533000E0590008EA59000800000000BF500008CA
:10534000E65900082DE9F047164699468A6807464F
:105350000B690C46DDF820809342B8BF13463360DA
:1053600091F843200AB1013333602368990642BFA4
:10537000336802333360256815F0060506D104F161
:10538000190AE36832689B1AAB4229DC94F843207F
:10539000131E226818BF012392062ED404F1430283
:1053A00049463846C047013021D023681A3454F8A2
:1053B0000E5C03F0060332680026042B54F8123CFE
:1053C00008BFAD1A54F80A2C14BF002525EAE5756C
:1053D0009342C4BF9B1AED18B5421AD1002008E0D1
:1053E0000123524649463846C047013003D14FF0A9
:1053F000FF30BDE8F0870135C3E7E1185A1C3020C3
:105400000233224481F8430094F8451082F8431097
:10541000C4E70123224649463846C0470130E6D05A
:105420000136D9E72DE9FF470C46914680469A465A
:10543000277E04F143020C99782F07D8622F0AD8EF
:10544000002F00F0D880582F00F0A38004F142060E
:1054500084F842703AE0A7F16303152BF6D801A057
:1054600050F823F0BD540008D15400084D540008F2
:105470004D5400084D5400084D540008D154000804
:105480004D5400084D5400084D5400084D54000878
:10549000DD55000801550008BF5500084D540008AF
:1054A0004D540008FF5500084D54000801550008F0
:1054B0004D5400084D540008C75500080B6804F10E
:1054C00042061A1D1B680A6084F842300123A3E0DB
:1054D000256808682E0600F104030AD505680B60EC
:1054E000002D03DA2D236D4284F843305E480A23F1
:1054F00019E015F0400F05680B6018BF2DB2EFE7FB
:105500000B682568181D0860280601D51D6802E093
:105510006906FBD51D886F2F53480CBF08230A234B
:10552000002184F843106668002EA660A2BF21689F
:1055300021F0040121600DB9002E4DD01646B5FBB7
:10554000F3F103FB1157C75D06F8017D2F460D46A9
:10555000BB42F4D9082B0BD12368DF0708D5236998
:1055600061689942DEBF302306F8013C06F1FF3640
:10557000921B22614B4603AA21464046CDF800A06B
:10558000FFF7E0FE01304CD14FF0FF3004B0BDE832
:10559000F087354884F8457023680E681F0656F872
:1055A000045B0E6014D5D90744BF43F02003236089
:1055B0001DB9236823F0200323601023B0E723687C
:1055C00043F0200323607823284884F84530E3E73C
:1055D0005E0648BFADB2E6E71646BBE70B68266835
:1055E0001D1D60690D6035061B6801D5186002E05D
:1055F0007106FBD51880002316462361BAE70B68B5
:105600001A1D0A6000211E686268304600F0DAF850
:1056100008B1801B606063682361002384F8433015
:10562000A8E72369324649464046D0470130ABD00F
:1056300023689B0713D4E068039B9842B8BF1846C1
:10564000A4E70123324649464046D04701309BD06B
:105650000135E36803995B1AAB42F2DCEBE7002506
:1056600004F11906F5E700BFF1590008025A0008D5
:1056700038B50023054D044608462B60FBF77AF841
:10568000431C02D12B6803B1236038BD08400020C1
:1056900010B50C46B1F90E1000F0AEF80028ABBF03
:1056A000636DA3891B1823F48053ACBF6365A3818A
:1056B00010BD2DE9F0411F468B8905460C46DB05E0
:1056C000164605D502230022B1F90E1000F068F845
:1056D000A3893246B4F90E10284623F48053A381DF
:1056E0003B46BDE8F04100F017B810B50C46B1F9E3
:1056F0000E1000F055F8431CA38915BF606523F414
:10570000805343F48053A38118BFA38110BDB1F926
:105710000E1000F013B8000038B50446064D0846D8
:10572000114600222A601A46FAF7D3FF431C02D121
:105730002B6803B1236038BD0840002038B5002332
:10574000054D044608462B60FAF7DFFF431C02D1E3
:105750002B6803B1236038BD0840002038B5002312
:10576000064D0446084611462B60FAF7DAFF431C43
:1057700002D12B6803B1236038BD00BF0840002070
:1057800038B50023054D044608462B60FAF7D9FFCB
:10579000431C02D12B6803B1236038BD08400020B0
:1057A00038B50446064D0846114600222A601A46BE
:1057B000FAF7D2FF431C02D12B6803B1236038BD36
:1057C00008400020C9B2024410B59042034601D1FE
:1057D000002303E01C7801308C42F6D1184610BD3E
:1057E0000148FFF745BB00BF004000200148FFF71C
:1057F00040BB00BF0040002038B50446064D0846B7
:10580000114600222A601A46FAF746FF431C02D1CD
:105810002B6803B1236038BD08400020F8B500BFF5
:10582000F8BC08BC9E467047F8B500BFF8BC08BC81
:085830009E46704700000000D5
:105838005461736B310000005461736B32000000D7
:105848005461736B330000005175657565206E6F88
:10585800742063726561746564000000436F756C41
:1058680064206E6F742073656E6420746F20746892
:10587800652071756575652E0D00000053656E64B1
:1058880020706173730D000051756575652069732B
:105898002066756C6C210D005175657565206973FE
:1058A80020656D707479210D0000000046726F6DDF
:1058B8002053656E6465722031203D202564200ADE
:1058C8000000000046726F6D2053656E646572209B
:1058D80032203D202564200A00000000436F756CCB
:1058E80064206E6F742072656365697665206672E0
:1058F8006F6D207468652071756575652E0D0000E3
:1059080049444C4500000000546D722053766300F2
:10591800546D7251000000006400C80100000000CE
:105928000000000001020304060708090000000047
:1059380001020304A0860100400D0300801A06003E
:1059480000350C0040420F0080841E0000093D0015
:1059580000127A000024F40000366E010048E801C5
:10596800006CDC02000000000000000000000000E5
:1059780000000000140000200000000000000000EB
:10598800000000000000000000000000000000000F
:1059980000000000000000000000000000000000FF
:1059A80000000000000000000000000000000000EF
:1059B80000000000000000000000000000000000DF
:1059C80000000000000000000000000000000000CF
:1059D8000000000000000000232D302B2000686C20
:1059E8004C006566674546470030313233343536FA
:1059F8003738394142434445460030313233343533
:105A0800363738396162636465660000000000005B
:085A1800250200080000000057
:085A2000010200080000000073
:105A280000093D000800000001000000AAAAAAAA77
:105A38001400002000000000A0590008C059000808
:105A4800805900080000000000000000000000006D
:105A5800000000000000000000000000000000003E
:105A6800000000000000000000000000000000002E
:105A7800000000000000000000000000000000001E
:105A8800000000000000000000000000000000000E
:085A9800000000000000000006
:0400000508000241AC
:00000001FF
